{
  "_format": "hh-sol-artifact-1",
  "contractName": "Nebula",
  "sourceName": "contracts/Nebula.sol",
  "abi": [
    {
      "inputs": [],
      "stateMutability": "nonpayable",
      "type": "constructor"
    },
    {
      "anonymous": false,
      "inputs": [
        {
          "indexed": true,
          "internalType": "address",
          "name": "owner",
          "type": "address"
        },
        {
          "indexed": true,
          "internalType": "address",
          "name": "approved",
          "type": "address"
        },
        {
          "indexed": true,
          "internalType": "uint256",
          "name": "tokenId",
          "type": "uint256"
        }
      ],
      "name": "Approval",
      "type": "event"
    },
    {
      "anonymous": false,
      "inputs": [
        {
          "indexed": true,
          "internalType": "address",
          "name": "owner",
          "type": "address"
        },
        {
          "indexed": true,
          "internalType": "address",
          "name": "operator",
          "type": "address"
        },
        {
          "indexed": false,
          "internalType": "bool",
          "name": "approved",
          "type": "bool"
        }
      ],
      "name": "ApprovalForAll",
      "type": "event"
    },
    {
      "anonymous": false,
      "inputs": [
        {
          "indexed": true,
          "internalType": "address",
          "name": "previousOwner",
          "type": "address"
        },
        {
          "indexed": true,
          "internalType": "address",
          "name": "newOwner",
          "type": "address"
        }
      ],
      "name": "OwnershipTransferred",
      "type": "event"
    },
    {
      "anonymous": false,
      "inputs": [
        {
          "indexed": true,
          "internalType": "address",
          "name": "from",
          "type": "address"
        },
        {
          "indexed": true,
          "internalType": "address",
          "name": "to",
          "type": "address"
        },
        {
          "indexed": true,
          "internalType": "uint256",
          "name": "tokenId",
          "type": "uint256"
        }
      ],
      "name": "Transfer",
      "type": "event"
    },
    {
      "inputs": [
        {
          "internalType": "address",
          "name": "to",
          "type": "address"
        },
        {
          "internalType": "uint256",
          "name": "tokenId",
          "type": "uint256"
        }
      ],
      "name": "approve",
      "outputs": [],
      "stateMutability": "nonpayable",
      "type": "function"
    },
    {
      "inputs": [
        {
          "internalType": "address",
          "name": "owner",
          "type": "address"
        }
      ],
      "name": "balanceOf",
      "outputs": [
        {
          "internalType": "uint256",
          "name": "",
          "type": "uint256"
        }
      ],
      "stateMutability": "view",
      "type": "function"
    },
    {
      "inputs": [],
      "name": "getAllPublicTokens",
      "outputs": [
        {
          "internalType": "uint256[]",
          "name": "",
          "type": "uint256[]"
        }
      ],
      "stateMutability": "view",
      "type": "function"
    },
    {
      "inputs": [
        {
          "internalType": "uint256",
          "name": "tokenId",
          "type": "uint256"
        }
      ],
      "name": "getApproved",
      "outputs": [
        {
          "internalType": "address",
          "name": "",
          "type": "address"
        }
      ],
      "stateMutability": "view",
      "type": "function"
    },
    {
      "inputs": [
        {
          "internalType": "address",
          "name": "userId",
          "type": "address"
        }
      ],
      "name": "getUserPrivateTokens",
      "outputs": [
        {
          "internalType": "uint256[]",
          "name": "",
          "type": "uint256[]"
        }
      ],
      "stateMutability": "view",
      "type": "function"
    },
    {
      "inputs": [
        {
          "internalType": "address",
          "name": "userId",
          "type": "address"
        }
      ],
      "name": "getUserPublicTokens",
      "outputs": [
        {
          "internalType": "uint256[]",
          "name": "",
          "type": "uint256[]"
        }
      ],
      "stateMutability": "view",
      "type": "function"
    },
    {
      "inputs": [
        {
          "internalType": "address",
          "name": "userId",
          "type": "address"
        }
      ],
      "name": "getUserRecievedTokens",
      "outputs": [
        {
          "internalType": "uint256[]",
          "name": "",
          "type": "uint256[]"
        }
      ],
      "stateMutability": "view",
      "type": "function"
    },
    {
      "inputs": [
        {
          "internalType": "address",
          "name": "owner",
          "type": "address"
        },
        {
          "internalType": "address",
          "name": "operator",
          "type": "address"
        }
      ],
      "name": "isApprovedForAll",
      "outputs": [
        {
          "internalType": "bool",
          "name": "",
          "type": "bool"
        }
      ],
      "stateMutability": "view",
      "type": "function"
    },
    {
      "inputs": [],
      "name": "name",
      "outputs": [
        {
          "internalType": "string",
          "name": "",
          "type": "string"
        }
      ],
      "stateMutability": "view",
      "type": "function"
    },
    {
      "inputs": [],
      "name": "owner",
      "outputs": [
        {
          "internalType": "address",
          "name": "",
          "type": "address"
        }
      ],
      "stateMutability": "view",
      "type": "function"
    },
    {
      "inputs": [
        {
          "internalType": "uint256",
          "name": "tokenId",
          "type": "uint256"
        }
      ],
      "name": "ownerOf",
      "outputs": [
        {
          "internalType": "address",
          "name": "",
          "type": "address"
        }
      ],
      "stateMutability": "view",
      "type": "function"
    },
    {
      "inputs": [
        {
          "internalType": "uint256",
          "name": "",
          "type": "uint256"
        }
      ],
      "name": "publicTokensIds",
      "outputs": [
        {
          "internalType": "uint256",
          "name": "",
          "type": "uint256"
        }
      ],
      "stateMutability": "view",
      "type": "function"
    },
    {
      "inputs": [],
      "name": "renounceOwnership",
      "outputs": [],
      "stateMutability": "nonpayable",
      "type": "function"
    },
    {
      "inputs": [
        {
          "internalType": "address",
          "name": "from",
          "type": "address"
        },
        {
          "internalType": "address",
          "name": "to",
          "type": "address"
        },
        {
          "internalType": "uint256",
          "name": "tokenId",
          "type": "uint256"
        }
      ],
      "name": "safeTransferFrom",
      "outputs": [],
      "stateMutability": "nonpayable",
      "type": "function"
    },
    {
      "inputs": [
        {
          "internalType": "address",
          "name": "from",
          "type": "address"
        },
        {
          "internalType": "address",
          "name": "to",
          "type": "address"
        },
        {
          "internalType": "uint256",
          "name": "tokenId",
          "type": "uint256"
        },
        {
          "internalType": "bytes",
          "name": "_data",
          "type": "bytes"
        }
      ],
      "name": "safeTransferFrom",
      "outputs": [],
      "stateMutability": "nonpayable",
      "type": "function"
    },
    {
      "inputs": [
        {
          "internalType": "address",
          "name": "operator",
          "type": "address"
        },
        {
          "internalType": "bool",
          "name": "approved",
          "type": "bool"
        }
      ],
      "name": "setApprovalForAll",
      "outputs": [],
      "stateMutability": "nonpayable",
      "type": "function"
    },
    {
      "inputs": [
        {
          "internalType": "address",
          "name": "addressTo",
          "type": "address"
        },
        {
          "internalType": "uint256",
          "name": "tokenId",
          "type": "uint256"
        }
      ],
      "name": "shareToken",
      "outputs": [],
      "stateMutability": "nonpayable",
      "type": "function"
    },
    {
      "inputs": [
        {
          "internalType": "bytes4",
          "name": "interfaceId",
          "type": "bytes4"
        }
      ],
      "name": "supportsInterface",
      "outputs": [
        {
          "internalType": "bool",
          "name": "",
          "type": "bool"
        }
      ],
      "stateMutability": "view",
      "type": "function"
    },
    {
      "inputs": [],
      "name": "symbol",
      "outputs": [
        {
          "internalType": "string",
          "name": "",
          "type": "string"
        }
      ],
      "stateMutability": "view",
      "type": "function"
    },
    {
      "inputs": [
        {
          "internalType": "uint256",
          "name": "tokenId",
          "type": "uint256"
        }
      ],
      "name": "tokenURI",
      "outputs": [
        {
          "internalType": "string",
          "name": "",
          "type": "string"
        }
      ],
      "stateMutability": "view",
      "type": "function"
    },
    {
      "inputs": [
        {
          "internalType": "address",
          "name": "from",
          "type": "address"
        },
        {
          "internalType": "address",
          "name": "to",
          "type": "address"
        },
        {
          "internalType": "uint256",
          "name": "tokenId",
          "type": "uint256"
        }
      ],
      "name": "transferFrom",
      "outputs": [],
      "stateMutability": "nonpayable",
      "type": "function"
    },
    {
      "inputs": [
        {
          "internalType": "address",
          "name": "newOwner",
          "type": "address"
        }
      ],
      "name": "transferOwnership",
      "outputs": [],
      "stateMutability": "nonpayable",
      "type": "function"
    },
    {
      "inputs": [
        {
          "internalType": "string",
          "name": "input",
          "type": "string"
        },
        {
          "internalType": "bool",
          "name": "_isPrivate",
          "type": "bool"
        }
      ],
      "name": "uploadFile",
      "outputs": [],
      "stateMutability": "nonpayable",
      "type": "function"
    }
  ],
  "bytecode": "0x60806040523480156200001157600080fd5b506040518060400160405280600581526020017f5348454c460000000000000000000000000000000000000000000000000000008152506040518060400160405280600381526020017f534c460000000000000000000000000000000000000000000000000000000000815250816000908051906020019062000096929190620001a6565b508060019080519060200190620000af929190620001a6565b505050620000d2620000c6620000d860201b60201c565b620000e060201b60201c565b620002bb565b600033905090565b6000600660009054906101000a900473ffffffffffffffffffffffffffffffffffffffff16905081600660006101000a81548173ffffffffffffffffffffffffffffffffffffffff021916908373ffffffffffffffffffffffffffffffffffffffff1602179055508173ffffffffffffffffffffffffffffffffffffffff168173ffffffffffffffffffffffffffffffffffffffff167f8be0079c531659141344cd1fd0a4f28419497f9722a3daafe3b4186f6b6457e060405160405180910390a35050565b828054620001b49062000256565b90600052602060002090601f016020900481019282620001d8576000855562000224565b82601f10620001f357805160ff191683800117855562000224565b8280016001018555821562000224579182015b828111156200022357825182559160200191906001019062000206565b5b50905062000233919062000237565b5090565b5b808211156200025257600081600090555060010162000238565b5090565b600060028204905060018216806200026f57607f821691505b602082108114156200028657620002856200028c565b5b50919050565b7f4e487b7100000000000000000000000000000000000000000000000000000000600052602260045260246000fd5b6132f380620002cb6000396000f3fe608060405234801561001057600080fd5b506004361061014d5760003560e01c806383b54dff116100c3578063c181f5801161007c578063c181f5801461039c578063c4f66ed1146103b8578063c87b56dd146103e8578063e985e9c514610418578063eef616e314610448578063f2fde38b146104785761014d565b806383b54dff146102ee5780638da5cb5b1461030c57806391b68f221461032a57806395d89b4114610346578063a22cb46514610364578063b88d4fde146103805761014d565b806334ee60c91161011557806334ee60c91461020857806342842e0e146102385780636352211e1461025457806365a1456d1461028457806370a08231146102b4578063715018a6146102e45761014d565b806301ffc9a71461015257806306fdde0314610182578063081812fc146101a0578063095ea7b3146101d057806323b872dd146101ec575b600080fd5b61016c600480360381019061016791906122a3565b610494565b60405161017991906127b9565b60405180910390f35b61018a610576565b60405161019791906127d4565b60405180910390f35b6101ba60048036038101906101b59190612349565b610608565b6040516101c79190612730565b60405180910390f35b6101ea60048036038101906101e59190612267565b61068d565b005b61020660048036038101906102019190612161565b6107a5565b005b610222600480360381019061021d91906120fc565b610805565b60405161022f9190612797565b60405180910390f35b610252600480360381019061024d9190612161565b61089f565b005b61026e60048036038101906102699190612349565b6108bf565b60405161027b9190612730565b60405180910390f35b61029e600480360381019061029991906120fc565b610971565b6040516102ab9190612797565b60405180910390f35b6102ce60048036038101906102c991906120fc565b610a0b565b6040516102db91906129d6565b60405180910390f35b6102ec610ac3565b005b6102f6610b4b565b6040516103039190612797565b60405180910390f35b610314610ba3565b6040516103219190612730565b60405180910390f35b610344600480360381019061033f91906122f5565b610bcd565b005b61034e610d23565b60405161035b91906127d4565b60405180910390f35b61037e6004803603810190610379919061222b565b610db5565b005b61039a600480360381019061039591906121b0565b610dcb565b005b6103b660048036038101906103b19190612267565b610e2d565b005b6103d260048036038101906103cd9190612349565b610e9a565b6040516103df91906129d6565b60405180910390f35b61040260048036038101906103fd9190612349565b610ebe565b60405161040f91906127d4565b60405180910390f35b610432600480360381019061042d9190612125565b610fb5565b60405161043f91906127b9565b60405180910390f35b610462600480360381019061045d91906120fc565b611049565b60405161046f9190612797565b60405180910390f35b610492600480360381019061048d91906120fc565b6110e3565b005b60007f80ac58cd000000000000000000000000000000000000000000000000000000007bffffffffffffffffffffffffffffffffffffffffffffffffffffffff1916827bffffffffffffffffffffffffffffffffffffffffffffffffffffffff1916148061055f57507f5b5e139f000000000000000000000000000000000000000000000000000000007bffffffffffffffffffffffffffffffffffffffffffffffffffffffff1916827bffffffffffffffffffffffffffffffffffffffffffffffffffffffff1916145b8061056f575061056e826111db565b5b9050919050565b60606000805461058590612cbf565b80601f01602080910402602001604051908101604052809291908181526020018280546105b190612cbf565b80156105fe5780601f106105d3576101008083540402835291602001916105fe565b820191906000526020600020905b8154815290600101906020018083116105e157829003601f168201915b5050505050905090565b600061061382611245565b610652576040517f08c379a000000000000000000000000000000000000000000000000000000000815260040161064990612956565b60405180910390fd5b6004600083815260200190815260200160002060009054906101000a900473ffffffffffffffffffffffffffffffffffffffff169050919050565b6000610698826108bf565b90508073ffffffffffffffffffffffffffffffffffffffff168373ffffffffffffffffffffffffffffffffffffffff161415610709576040517f08c379a000000000000000000000000000000000000000000000000000000000815260040161070090612996565b60405180910390fd5b8073ffffffffffffffffffffffffffffffffffffffff166107286112b1565b73ffffffffffffffffffffffffffffffffffffffff1614806107575750610756816107516112b1565b610fb5565b5b610796576040517f08c379a000000000000000000000000000000000000000000000000000000000815260040161078d906128d6565b60405180910390fd5b6107a083836112b9565b505050565b6107b66107b06112b1565b82611372565b6107f5576040517f08c379a00000000000000000000000000000000000000000000000000000000081526004016107ec906129b6565b60405180910390fd5b610800838383611450565b505050565b6060600a60008373ffffffffffffffffffffffffffffffffffffffff1673ffffffffffffffffffffffffffffffffffffffff16815260200190815260200160002060020180548060200260200160405190810160405280929190818152602001828054801561089357602002820191906000526020600020905b81548152602001906001019080831161087f575b50505050509050919050565b6108ba83838360405180602001604052806000815250610dcb565b505050565b6000806002600084815260200190815260200160002060009054906101000a900473ffffffffffffffffffffffffffffffffffffffff169050600073ffffffffffffffffffffffffffffffffffffffff168173ffffffffffffffffffffffffffffffffffffffff161415610968576040517f08c379a000000000000000000000000000000000000000000000000000000000815260040161095f90612916565b60405180910390fd5b80915050919050565b6060600a60008373ffffffffffffffffffffffffffffffffffffffff1673ffffffffffffffffffffffffffffffffffffffff1681526020019081526020016000206001018054806020026020016040519081016040528092919081815260200182805480156109ff57602002820191906000526020600020905b8154815260200190600101908083116109eb575b50505050509050919050565b60008073ffffffffffffffffffffffffffffffffffffffff168273ffffffffffffffffffffffffffffffffffffffff161415610a7c576040517f08c379a0000000000000000000000000000000000000000000000000000000008152600401610a73906128f6565b60405180910390fd5b600360008373ffffffffffffffffffffffffffffffffffffffff1673ffffffffffffffffffffffffffffffffffffffff168152602001908152602001600020549050919050565b610acb6112b1565b73ffffffffffffffffffffffffffffffffffffffff16610ae9610ba3565b73ffffffffffffffffffffffffffffffffffffffff1614610b3f576040517f08c379a0000000000000000000000000000000000000000000000000000000008152600401610b3690612976565b60405180910390fd5b610b4960006116b7565b565b60606009805480602002602001604051908101604052809291908181526020018280548015610b9957602002820191906000526020600020905b815481526020019060010190808311610b85575b5050505050905090565b6000600660009054906101000a900473ffffffffffffffffffffffffffffffffffffffff16905090565b610bd7600761177d565b6000610be36007611793565b905082600860008381526020019081526020016000209080519060200190610c0c929190611f20565b50610c1733826117a1565b8115610c8b57600a60003373ffffffffffffffffffffffffffffffffffffffff1673ffffffffffffffffffffffffffffffffffffffff168152602001908152602001600020600101819080600181540180825580915050600190039060005260206000200160009091909190915055610d1e565b600a60003373ffffffffffffffffffffffffffffffffffffffff1673ffffffffffffffffffffffffffffffffffffffff16815260200190815260200160002060000181908060018154018082558091505060019003906000526020600020016000909190919091505560098190806001815401808255809150506001900390600052602060002001600090919091909150555b505050565b606060018054610d3290612cbf565b80601f0160208091040260200160405190810160405280929190818152602001828054610d5e90612cbf565b8015610dab5780601f10610d8057610100808354040283529160200191610dab565b820191906000526020600020905b815481529060010190602001808311610d8e57829003601f168201915b5050505050905090565b610dc7610dc06112b1565b83836117bf565b5050565b610ddc610dd66112b1565b83611372565b610e1b576040517f08c379a0000000000000000000000000000000000000000000000000000000008152600401610e12906129b6565b60405180910390fd5b610e278484848461192c565b50505050565b600a60008373ffffffffffffffffffffffffffffffffffffffff1673ffffffffffffffffffffffffffffffffffffffff1681526020019081526020016000206002018190806001815401808255809150506001900390600052602060002001600090919091909150555050565b60098181548110610eaa57600080fd5b906000526020600020016000915090505481565b60606000600860008481526020019081526020016000208054610ee090612cbf565b80601f0160208091040260200160405190810160405280929190818152602001828054610f0c90612cbf565b8015610f595780601f10610f2e57610100808354040283529160200191610f59565b820191906000526020600020905b815481529060010190602001808311610f3c57829003601f168201915b505050505090506000610f8a82604051602001610f7691906126f7565b604051602081830303815290604052611988565b905080604051602001610f9d919061270e565b60405160208183030381529060405292505050919050565b6000600560008473ffffffffffffffffffffffffffffffffffffffff1673ffffffffffffffffffffffffffffffffffffffff16815260200190815260200160002060008373ffffffffffffffffffffffffffffffffffffffff1673ffffffffffffffffffffffffffffffffffffffff16815260200190815260200160002060009054906101000a900460ff16905092915050565b6060600a60008373ffffffffffffffffffffffffffffffffffffffff1673ffffffffffffffffffffffffffffffffffffffff1681526020019081526020016000206000018054806020026020016040519081016040528092919081815260200182805480156110d757602002820191906000526020600020905b8154815260200190600101908083116110c3575b50505050509050919050565b6110eb6112b1565b73ffffffffffffffffffffffffffffffffffffffff16611109610ba3565b73ffffffffffffffffffffffffffffffffffffffff161461115f576040517f08c379a000000000000000000000000000000000000000000000000000000000815260040161115690612976565b60405180910390fd5b600073ffffffffffffffffffffffffffffffffffffffff168173ffffffffffffffffffffffffffffffffffffffff1614156111cf576040517f08c379a00000000000000000000000000000000000000000000000000000000081526004016111c690612816565b60405180910390fd5b6111d8816116b7565b50565b60007f01ffc9a7000000000000000000000000000000000000000000000000000000007bffffffffffffffffffffffffffffffffffffffffffffffffffffffff1916827bffffffffffffffffffffffffffffffffffffffffffffffffffffffff1916149050919050565b60008073ffffffffffffffffffffffffffffffffffffffff166002600084815260200190815260200160002060009054906101000a900473ffffffffffffffffffffffffffffffffffffffff1673ffffffffffffffffffffffffffffffffffffffff1614159050919050565b600033905090565b816004600083815260200190815260200160002060006101000a81548173ffffffffffffffffffffffffffffffffffffffff021916908373ffffffffffffffffffffffffffffffffffffffff160217905550808273ffffffffffffffffffffffffffffffffffffffff1661132c836108bf565b73ffffffffffffffffffffffffffffffffffffffff167f8c5be1e5ebec7d5bd14f71427d1e84f3dd0314c0f7b2291e5b200ac8c7c3b92560405160405180910390a45050565b600061137d82611245565b6113bc576040517f08c379a00000000000000000000000000000000000000000000000000000000081526004016113b3906128b6565b60405180910390fd5b60006113c7836108bf565b90508073ffffffffffffffffffffffffffffffffffffffff168473ffffffffffffffffffffffffffffffffffffffff16148061143657508373ffffffffffffffffffffffffffffffffffffffff1661141e84610608565b73ffffffffffffffffffffffffffffffffffffffff16145b8061144757506114468185610fb5565b5b91505092915050565b8273ffffffffffffffffffffffffffffffffffffffff16611470826108bf565b73ffffffffffffffffffffffffffffffffffffffff16146114c6576040517f08c379a00000000000000000000000000000000000000000000000000000000081526004016114bd90612836565b60405180910390fd5b600073ffffffffffffffffffffffffffffffffffffffff168273ffffffffffffffffffffffffffffffffffffffff161415611536576040517f08c379a000000000000000000000000000000000000000000000000000000000815260040161152d90612876565b60405180910390fd5b611541838383611b27565b61154c6000826112b9565b6001600360008573ffffffffffffffffffffffffffffffffffffffff1673ffffffffffffffffffffffffffffffffffffffff168152602001908152602001600020600082825461159c9190612bd5565b925050819055506001600360008473ffffffffffffffffffffffffffffffffffffffff1673ffffffffffffffffffffffffffffffffffffffff16815260200190815260200160002060008282546115f39190612af4565b92505081905550816002600083815260200190815260200160002060006101000a81548173ffffffffffffffffffffffffffffffffffffffff021916908373ffffffffffffffffffffffffffffffffffffffff160217905550808273ffffffffffffffffffffffffffffffffffffffff168473ffffffffffffffffffffffffffffffffffffffff167fddf252ad1be2c89b69c2b068fc378daa952ba7f163c4a11628f55a4df523b3ef60405160405180910390a46116b2838383611b2c565b505050565b6000600660009054906101000a900473ffffffffffffffffffffffffffffffffffffffff16905081600660006101000a81548173ffffffffffffffffffffffffffffffffffffffff021916908373ffffffffffffffffffffffffffffffffffffffff1602179055508173ffffffffffffffffffffffffffffffffffffffff168173ffffffffffffffffffffffffffffffffffffffff167f8be0079c531659141344cd1fd0a4f28419497f9722a3daafe3b4186f6b6457e060405160405180910390a35050565b6001816000016000828254019250508190555050565b600081600001549050919050565b6117bb828260405180602001604052806000815250611b31565b5050565b8173ffffffffffffffffffffffffffffffffffffffff168373ffffffffffffffffffffffffffffffffffffffff16141561182e576040517f08c379a000000000000000000000000000000000000000000000000000000000815260040161182590612896565b60405180910390fd5b80600560008573ffffffffffffffffffffffffffffffffffffffff1673ffffffffffffffffffffffffffffffffffffffff16815260200190815260200160002060008473ffffffffffffffffffffffffffffffffffffffff1673ffffffffffffffffffffffffffffffffffffffff16815260200190815260200160002060006101000a81548160ff0219169083151502179055508173ffffffffffffffffffffffffffffffffffffffff168373ffffffffffffffffffffffffffffffffffffffff167f17307eab39ab6107e8899845ad3d59bd9653f200f220920489ca2b5937696c318360405161191f91906127b9565b60405180910390a3505050565b611937848484611450565b61194384848484611b8c565b611982576040517f08c379a0000000000000000000000000000000000000000000000000000000008152600401611979906127f6565b60405180910390fd5b50505050565b60606000825114156119ab57604051806020016040528060008152509050611b22565b600060405180606001604052806040815260200161327e60409139905060006003600285516119da9190612af4565b6119e49190612b4a565b60046119f09190612b7b565b90506000602082611a019190612af4565b67ffffffffffffffff811115611a40577f4e487b7100000000000000000000000000000000000000000000000000000000600052604160045260246000fd5b6040519080825280601f01601f191660200182016040528015611a725781602001600182028036833780820191505090505b509050818152600183018586518101602084015b81831015611ae1576003830192508251603f8160121c168501518253600182019150603f81600c1c168501518253600182019150603f8160061c168501518253600182019150603f8116850151825360018201915050611a86565b600389510660018114611afb5760028114611b0b57611b16565b613d3d60f01b6002830352611b16565b603d60f81b60018303525b50505050508093505050505b919050565b505050565b505050565b611b3b8383611d23565b611b486000848484611b8c565b611b87576040517f08c379a0000000000000000000000000000000000000000000000000000000008152600401611b7e906127f6565b60405180910390fd5b505050565b6000611bad8473ffffffffffffffffffffffffffffffffffffffff16611efd565b15611d16578373ffffffffffffffffffffffffffffffffffffffff1663150b7a02611bd66112b1565b8786866040518563ffffffff1660e01b8152600401611bf8949392919061274b565b602060405180830381600087803b158015611c1257600080fd5b505af1925050508015611c4357506040513d601f19601f82011682018060405250810190611c4091906122cc565b60015b611cc6573d8060008114611c73576040519150601f19603f3d011682016040523d82523d6000602084013e611c78565b606091505b50600081511415611cbe576040517f08c379a0000000000000000000000000000000000000000000000000000000008152600401611cb5906127f6565b60405180910390fd5b805181602001fd5b63150b7a0260e01b7bffffffffffffffffffffffffffffffffffffffffffffffffffffffff1916817bffffffffffffffffffffffffffffffffffffffffffffffffffffffff191614915050611d1b565b600190505b949350505050565b600073ffffffffffffffffffffffffffffffffffffffff168273ffffffffffffffffffffffffffffffffffffffff161415611d93576040517f08c379a0000000000000000000000000000000000000000000000000000000008152600401611d8a90612936565b60405180910390fd5b611d9c81611245565b15611ddc576040517f08c379a0000000000000000000000000000000000000000000000000000000008152600401611dd390612856565b60405180910390fd5b611de860008383611b27565b6001600360008473ffffffffffffffffffffffffffffffffffffffff1673ffffffffffffffffffffffffffffffffffffffff1681526020019081526020016000206000828254611e389190612af4565b92505081905550816002600083815260200190815260200160002060006101000a81548173ffffffffffffffffffffffffffffffffffffffff021916908373ffffffffffffffffffffffffffffffffffffffff160217905550808273ffffffffffffffffffffffffffffffffffffffff16600073ffffffffffffffffffffffffffffffffffffffff167fddf252ad1be2c89b69c2b068fc378daa952ba7f163c4a11628f55a4df523b3ef60405160405180910390a4611ef960008383611b2c565b5050565b6000808273ffffffffffffffffffffffffffffffffffffffff163b119050919050565b828054611f2c90612cbf565b90600052602060002090601f016020900481019282611f4e5760008555611f95565b82601f10611f6757805160ff1916838001178555611f95565b82800160010185558215611f95579182015b82811115611f94578251825591602001919060010190611f79565b5b509050611fa29190611fa6565b5090565b5b80821115611fbf576000816000905550600101611fa7565b5090565b6000611fd6611fd184612a16565b6129f1565b905082815260208101848484011115611fee57600080fd5b611ff9848285612c7d565b509392505050565b600061201461200f84612a47565b6129f1565b90508281526020810184848401111561202c57600080fd5b612037848285612c7d565b509392505050565b60008135905061204e81613221565b92915050565b60008135905061206381613238565b92915050565b6000813590506120788161324f565b92915050565b60008151905061208d8161324f565b92915050565b600082601f8301126120a457600080fd5b81356120b4848260208601611fc3565b91505092915050565b600082601f8301126120ce57600080fd5b81356120de848260208601612001565b91505092915050565b6000813590506120f681613266565b92915050565b60006020828403121561210e57600080fd5b600061211c8482850161203f565b91505092915050565b6000806040838503121561213857600080fd5b60006121468582860161203f565b92505060206121578582860161203f565b9150509250929050565b60008060006060848603121561217657600080fd5b60006121848682870161203f565b93505060206121958682870161203f565b92505060406121a6868287016120e7565b9150509250925092565b600080600080608085870312156121c657600080fd5b60006121d48782880161203f565b94505060206121e58782880161203f565b93505060406121f6878288016120e7565b925050606085013567ffffffffffffffff81111561221357600080fd5b61221f87828801612093565b91505092959194509250565b6000806040838503121561223e57600080fd5b600061224c8582860161203f565b925050602061225d85828601612054565b9150509250929050565b6000806040838503121561227a57600080fd5b60006122888582860161203f565b9250506020612299858286016120e7565b9150509250929050565b6000602082840312156122b557600080fd5b60006122c384828501612069565b91505092915050565b6000602082840312156122de57600080fd5b60006122ec8482850161207e565b91505092915050565b6000806040838503121561230857600080fd5b600083013567ffffffffffffffff81111561232257600080fd5b61232e858286016120bd565b925050602061233f85828601612054565b9150509250929050565b60006020828403121561235b57600080fd5b6000612369848285016120e7565b91505092915050565b600061237e83836126d9565b60208301905092915050565b61239381612c09565b82525050565b60006123a482612a88565b6123ae8185612ab6565b93506123b983612a78565b8060005b838110156123ea5781516123d18882612372565b97506123dc83612aa9565b9250506001810190506123bd565b5085935050505092915050565b61240081612c1b565b82525050565b600061241182612a93565b61241b8185612ac7565b935061242b818560208601612c8c565b61243481612dde565b840191505092915050565b600061244a82612a9e565b6124548185612ad8565b9350612464818560208601612c8c565b61246d81612dde565b840191505092915050565b600061248382612a9e565b61248d8185612ae9565b935061249d818560208601612c8c565b80840191505092915050565b60006124b6603283612ad8565b91506124c182612def565b604082019050919050565b60006124d9602683612ad8565b91506124e482612e3e565b604082019050919050565b60006124fc602583612ad8565b915061250782612e8d565b604082019050919050565b600061251f601c83612ad8565b915061252a82612edc565b602082019050919050565b6000612542602483612ad8565b915061254d82612f05565b604082019050919050565b6000612565601983612ad8565b915061257082612f54565b602082019050919050565b6000612588602c83612ad8565b915061259382612f7d565b604082019050919050565b60006125ab603883612ad8565b91506125b682612fcc565b604082019050919050565b60006125ce602a83612ad8565b91506125d98261301b565b604082019050919050565b60006125f1602983612ad8565b91506125fc8261306a565b604082019050919050565b6000612614602083612ad8565b915061261f826130b9565b602082019050919050565b6000612637602c83612ad8565b9150612642826130e2565b604082019050919050565b600061265a602083612ad8565b915061266582613131565b602082019050919050565b600061267d602183612ad8565b91506126888261315a565b604082019050919050565b60006126a0601d83612ae9565b91506126ab826131a9565b601d82019050919050565b60006126c3603183612ad8565b91506126ce826131d2565b604082019050919050565b6126e281612c73565b82525050565b6126f181612c73565b82525050565b60006127038284612478565b915081905092915050565b600061271982612693565b91506127258284612478565b915081905092915050565b6000602082019050612745600083018461238a565b92915050565b6000608082019050612760600083018761238a565b61276d602083018661238a565b61277a60408301856126e8565b818103606083015261278c8184612406565b905095945050505050565b600060208201905081810360008301526127b18184612399565b905092915050565b60006020820190506127ce60008301846123f7565b92915050565b600060208201905081810360008301526127ee818461243f565b905092915050565b6000602082019050818103600083015261280f816124a9565b9050919050565b6000602082019050818103600083015261282f816124cc565b9050919050565b6000602082019050818103600083015261284f816124ef565b9050919050565b6000602082019050818103600083015261286f81612512565b9050919050565b6000602082019050818103600083015261288f81612535565b9050919050565b600060208201905081810360008301526128af81612558565b9050919050565b600060208201905081810360008301526128cf8161257b565b9050919050565b600060208201905081810360008301526128ef8161259e565b9050919050565b6000602082019050818103600083015261290f816125c1565b9050919050565b6000602082019050818103600083015261292f816125e4565b9050919050565b6000602082019050818103600083015261294f81612607565b9050919050565b6000602082019050818103600083015261296f8161262a565b9050919050565b6000602082019050818103600083015261298f8161264d565b9050919050565b600060208201905081810360008301526129af81612670565b9050919050565b600060208201905081810360008301526129cf816126b6565b9050919050565b60006020820190506129eb60008301846126e8565b92915050565b60006129fb612a0c565b9050612a078282612cf1565b919050565b6000604051905090565b600067ffffffffffffffff821115612a3157612a30612daf565b5b612a3a82612dde565b9050602081019050919050565b600067ffffffffffffffff821115612a6257612a61612daf565b5b612a6b82612dde565b9050602081019050919050565b6000819050602082019050919050565b600081519050919050565b600081519050919050565b600081519050919050565b6000602082019050919050565b600082825260208201905092915050565b600082825260208201905092915050565b600082825260208201905092915050565b600081905092915050565b6000612aff82612c73565b9150612b0a83612c73565b9250827fffffffffffffffffffffffffffffffffffffffffffffffffffffffffffffffff03821115612b3f57612b3e612d22565b5b828201905092915050565b6000612b5582612c73565b9150612b6083612c73565b925082612b7057612b6f612d51565b5b828204905092915050565b6000612b8682612c73565b9150612b9183612c73565b9250817fffffffffffffffffffffffffffffffffffffffffffffffffffffffffffffffff0483118215151615612bca57612bc9612d22565b5b828202905092915050565b6000612be082612c73565b9150612beb83612c73565b925082821015612bfe57612bfd612d22565b5b828203905092915050565b6000612c1482612c53565b9050919050565b60008115159050919050565b60007fffffffff0000000000000000000000000000000000000000000000000000000082169050919050565b600073ffffffffffffffffffffffffffffffffffffffff82169050919050565b6000819050919050565b82818337600083830152505050565b60005b83811015612caa578082015181840152602081019050612c8f565b83811115612cb9576000848401525b50505050565b60006002820490506001821680612cd757607f821691505b60208210811415612ceb57612cea612d80565b5b50919050565b612cfa82612dde565b810181811067ffffffffffffffff82111715612d1957612d18612daf565b5b80604052505050565b7f4e487b7100000000000000000000000000000000000000000000000000000000600052601160045260246000fd5b7f4e487b7100000000000000000000000000000000000000000000000000000000600052601260045260246000fd5b7f4e487b7100000000000000000000000000000000000000000000000000000000600052602260045260246000fd5b7f4e487b7100000000000000000000000000000000000000000000000000000000600052604160045260246000fd5b6000601f19601f8301169050919050565b7f4552433732313a207472616e7366657220746f206e6f6e20455243373231526560008201527f63656976657220696d706c656d656e7465720000000000000000000000000000602082015250565b7f4f776e61626c653a206e6577206f776e657220697320746865207a65726f206160008201527f6464726573730000000000000000000000000000000000000000000000000000602082015250565b7f4552433732313a207472616e736665722066726f6d20696e636f72726563742060008201527f6f776e6572000000000000000000000000000000000000000000000000000000602082015250565b7f4552433732313a20746f6b656e20616c7265616479206d696e74656400000000600082015250565b7f4552433732313a207472616e7366657220746f20746865207a65726f2061646460008201527f7265737300000000000000000000000000000000000000000000000000000000602082015250565b7f4552433732313a20617070726f766520746f2063616c6c657200000000000000600082015250565b7f4552433732313a206f70657261746f7220717565727920666f72206e6f6e657860008201527f697374656e7420746f6b656e0000000000000000000000000000000000000000602082015250565b7f4552433732313a20617070726f76652063616c6c6572206973206e6f74206f7760008201527f6e6572206e6f7220617070726f76656420666f7220616c6c0000000000000000602082015250565b7f4552433732313a2062616c616e636520717565727920666f7220746865207a6560008201527f726f206164647265737300000000000000000000000000000000000000000000602082015250565b7f4552433732313a206f776e657220717565727920666f72206e6f6e657869737460008201527f656e7420746f6b656e0000000000000000000000000000000000000000000000602082015250565b7f4552433732313a206d696e7420746f20746865207a65726f2061646472657373600082015250565b7f4552433732313a20617070726f76656420717565727920666f72206e6f6e657860008201527f697374656e7420746f6b656e0000000000000000000000000000000000000000602082015250565b7f4f776e61626c653a2063616c6c6572206973206e6f7420746865206f776e6572600082015250565b7f4552433732313a20617070726f76616c20746f2063757272656e74206f776e6560008201527f7200000000000000000000000000000000000000000000000000000000000000602082015250565b7f646174613a6170706c69636174696f6e2f6a736f6e3b6261736536342c000000600082015250565b7f4552433732313a207472616e736665722063616c6c6572206973206e6f74206f60008201527f776e6572206e6f7220617070726f766564000000000000000000000000000000602082015250565b61322a81612c09565b811461323557600080fd5b50565b61324181612c1b565b811461324c57600080fd5b50565b61325881612c27565b811461326357600080fd5b50565b61326f81612c73565b811461327a57600080fd5b5056fe4142434445464748494a4b4c4d4e4f505152535455565758595a6162636465666768696a6b6c6d6e6f707172737475767778797a303132333435363738392b2fa2646970667358221220af8bfc1f14bff9b152ed22fb9b64fdbfc6d50a799d159793aa16107ba6d22bea64736f6c63430008040033",
  "linkReferences": {},
  "deployedLinkReferences": {}
}