{
  "_format": "hh-sol-artifact-1",
  "contractName": "Nebula",
  "sourceName": "contracts/Nebula.sol",
  "abi": [
    {
      "inputs": [],
      "stateMutability": "nonpayable",
      "type": "constructor"
    },
    {
      "anonymous": false,
      "inputs": [
        {
          "indexed": true,
          "internalType": "address",
          "name": "owner",
          "type": "address"
        },
        {
          "indexed": true,
          "internalType": "address",
          "name": "approved",
          "type": "address"
        },
        {
          "indexed": true,
          "internalType": "uint256",
          "name": "tokenId",
          "type": "uint256"
        }
      ],
      "name": "Approval",
      "type": "event"
    },
    {
      "anonymous": false,
      "inputs": [
        {
          "indexed": true,
          "internalType": "address",
          "name": "owner",
          "type": "address"
        },
        {
          "indexed": true,
          "internalType": "address",
          "name": "operator",
          "type": "address"
        },
        {
          "indexed": false,
          "internalType": "bool",
          "name": "approved",
          "type": "bool"
        }
      ],
      "name": "ApprovalForAll",
      "type": "event"
    },
    {
      "anonymous": false,
      "inputs": [
        {
          "indexed": true,
          "internalType": "address",
          "name": "previousOwner",
          "type": "address"
        },
        {
          "indexed": true,
          "internalType": "address",
          "name": "newOwner",
          "type": "address"
        }
      ],
      "name": "OwnershipTransferred",
      "type": "event"
    },
    {
      "anonymous": false,
      "inputs": [
        {
          "indexed": true,
          "internalType": "address",
          "name": "from",
          "type": "address"
        },
        {
          "indexed": true,
          "internalType": "address",
          "name": "to",
          "type": "address"
        },
        {
          "indexed": true,
          "internalType": "uint256",
          "name": "tokenId",
          "type": "uint256"
        }
      ],
      "name": "Transfer",
      "type": "event"
    },
    {
      "inputs": [
        {
          "internalType": "address",
          "name": "to",
          "type": "address"
        },
        {
          "internalType": "uint256",
          "name": "tokenId",
          "type": "uint256"
        }
      ],
      "name": "approve",
      "outputs": [],
      "stateMutability": "nonpayable",
      "type": "function"
    },
    {
      "inputs": [
        {
          "internalType": "address",
          "name": "owner",
          "type": "address"
        }
      ],
      "name": "balanceOf",
      "outputs": [
        {
          "internalType": "uint256",
          "name": "",
          "type": "uint256"
        }
      ],
      "stateMutability": "view",
      "type": "function"
    },
    {
      "inputs": [],
      "name": "getAllPublicTokens",
      "outputs": [
        {
          "internalType": "uint256[]",
          "name": "",
          "type": "uint256[]"
        }
      ],
      "stateMutability": "view",
      "type": "function"
    },
    {
      "inputs": [
        {
          "internalType": "uint256",
          "name": "tokenId",
          "type": "uint256"
        }
      ],
      "name": "getApproved",
      "outputs": [
        {
          "internalType": "address",
          "name": "",
          "type": "address"
        }
      ],
      "stateMutability": "view",
      "type": "function"
    },
    {
      "inputs": [
        {
          "internalType": "address",
          "name": "userId",
          "type": "address"
        }
      ],
      "name": "getUserPrivateTokens",
      "outputs": [
        {
          "internalType": "uint256[]",
          "name": "",
          "type": "uint256[]"
        }
      ],
      "stateMutability": "view",
      "type": "function"
    },
    {
      "inputs": [
        {
          "internalType": "address",
          "name": "userId",
          "type": "address"
        }
      ],
      "name": "getUserPublicTokens",
      "outputs": [
        {
          "internalType": "uint256[]",
          "name": "",
          "type": "uint256[]"
        }
      ],
      "stateMutability": "view",
      "type": "function"
    },
    {
      "inputs": [
        {
          "internalType": "address",
          "name": "userId",
          "type": "address"
        }
      ],
      "name": "getUserRecievedTokens",
      "outputs": [
        {
          "internalType": "uint256[]",
          "name": "",
          "type": "uint256[]"
        }
      ],
      "stateMutability": "view",
      "type": "function"
    },
    {
      "inputs": [
        {
          "internalType": "address",
          "name": "owner",
          "type": "address"
        },
        {
          "internalType": "address",
          "name": "operator",
          "type": "address"
        }
      ],
      "name": "isApprovedForAll",
      "outputs": [
        {
          "internalType": "bool",
          "name": "",
          "type": "bool"
        }
      ],
      "stateMutability": "view",
      "type": "function"
    },
    {
      "inputs": [],
      "name": "name",
      "outputs": [
        {
          "internalType": "string",
          "name": "",
          "type": "string"
        }
      ],
      "stateMutability": "view",
      "type": "function"
    },
    {
      "inputs": [],
      "name": "owner",
      "outputs": [
        {
          "internalType": "address",
          "name": "",
          "type": "address"
        }
      ],
      "stateMutability": "view",
      "type": "function"
    },
    {
      "inputs": [
        {
          "internalType": "uint256",
          "name": "tokenId",
          "type": "uint256"
        }
      ],
      "name": "ownerOf",
      "outputs": [
        {
          "internalType": "address",
          "name": "",
          "type": "address"
        }
      ],
      "stateMutability": "view",
      "type": "function"
    },
    {
      "inputs": [
        {
          "internalType": "uint256",
          "name": "",
          "type": "uint256"
        }
      ],
      "name": "publicTokensIds",
      "outputs": [
        {
          "internalType": "uint256",
          "name": "",
          "type": "uint256"
        }
      ],
      "stateMutability": "view",
      "type": "function"
    },
    {
      "inputs": [],
      "name": "renounceOwnership",
      "outputs": [],
      "stateMutability": "nonpayable",
      "type": "function"
    },
    {
      "inputs": [
        {
          "internalType": "address",
          "name": "from",
          "type": "address"
        },
        {
          "internalType": "address",
          "name": "to",
          "type": "address"
        },
        {
          "internalType": "uint256",
          "name": "tokenId",
          "type": "uint256"
        }
      ],
      "name": "safeTransferFrom",
      "outputs": [],
      "stateMutability": "nonpayable",
      "type": "function"
    },
    {
      "inputs": [
        {
          "internalType": "address",
          "name": "from",
          "type": "address"
        },
        {
          "internalType": "address",
          "name": "to",
          "type": "address"
        },
        {
          "internalType": "uint256",
          "name": "tokenId",
          "type": "uint256"
        },
        {
          "internalType": "bytes",
          "name": "_data",
          "type": "bytes"
        }
      ],
      "name": "safeTransferFrom",
      "outputs": [],
      "stateMutability": "nonpayable",
      "type": "function"
    },
    {
      "inputs": [
        {
          "internalType": "address",
          "name": "operator",
          "type": "address"
        },
        {
          "internalType": "bool",
          "name": "approved",
          "type": "bool"
        }
      ],
      "name": "setApprovalForAll",
      "outputs": [],
      "stateMutability": "nonpayable",
      "type": "function"
    },
    {
      "inputs": [
        {
          "internalType": "bytes4",
          "name": "interfaceId",
          "type": "bytes4"
        }
      ],
      "name": "supportsInterface",
      "outputs": [
        {
          "internalType": "bool",
          "name": "",
          "type": "bool"
        }
      ],
      "stateMutability": "view",
      "type": "function"
    },
    {
      "inputs": [],
      "name": "symbol",
      "outputs": [
        {
          "internalType": "string",
          "name": "",
          "type": "string"
        }
      ],
      "stateMutability": "view",
      "type": "function"
    },
    {
      "inputs": [
        {
          "internalType": "uint256",
          "name": "tokenId",
          "type": "uint256"
        }
      ],
      "name": "tokenURI",
      "outputs": [
        {
          "internalType": "string",
          "name": "",
          "type": "string"
        }
      ],
      "stateMutability": "view",
      "type": "function"
    },
    {
      "inputs": [
        {
          "internalType": "address",
          "name": "from",
          "type": "address"
        },
        {
          "internalType": "address",
          "name": "to",
          "type": "address"
        },
        {
          "internalType": "uint256",
          "name": "tokenId",
          "type": "uint256"
        }
      ],
      "name": "transferFrom",
      "outputs": [],
      "stateMutability": "nonpayable",
      "type": "function"
    },
    {
      "inputs": [
        {
          "internalType": "address",
          "name": "newOwner",
          "type": "address"
        }
      ],
      "name": "transferOwnership",
      "outputs": [],
      "stateMutability": "nonpayable",
      "type": "function"
    },
    {
      "inputs": [
        {
          "internalType": "string",
          "name": "input",
          "type": "string"
        },
        {
          "internalType": "bool",
          "name": "_isPrivate",
          "type": "bool"
        }
      ],
      "name": "uploadFile",
      "outputs": [],
      "stateMutability": "nonpayable",
      "type": "function"
    }
  ],
  "bytecode": "0x60806040523480156200001157600080fd5b506040518060400160405280600581526020017f5348454c460000000000000000000000000000000000000000000000000000008152506040518060400160405280600381526020017f534c460000000000000000000000000000000000000000000000000000000000815250816000908051906020019062000096929190620001a6565b508060019080519060200190620000af929190620001a6565b505050620000d2620000c6620000d860201b60201c565b620000e060201b60201c565b620002bb565b600033905090565b6000600660009054906101000a900473ffffffffffffffffffffffffffffffffffffffff16905081600660006101000a81548173ffffffffffffffffffffffffffffffffffffffff021916908373ffffffffffffffffffffffffffffffffffffffff1602179055508173ffffffffffffffffffffffffffffffffffffffff168173ffffffffffffffffffffffffffffffffffffffff167f8be0079c531659141344cd1fd0a4f28419497f9722a3daafe3b4186f6b6457e060405160405180910390a35050565b828054620001b49062000256565b90600052602060002090601f016020900481019282620001d8576000855562000224565b82601f10620001f357805160ff191683800117855562000224565b8280016001018555821562000224579182015b828111156200022357825182559160200191906001019062000206565b5b50905062000233919062000237565b5090565b5b808211156200025257600081600090555060010162000238565b5090565b600060028204905060018216806200026f57607f821691505b602082108114156200028657620002856200028c565b5b50919050565b7f4e487b7100000000000000000000000000000000000000000000000000000000600052602260045260246000fd5b61325f80620002cb6000396000f3fe608060405234801561001057600080fd5b50600436106101425760003560e01c806383b54dff116100b8578063b88d4fde1161007c578063b88d4fde14610375578063c4f66ed114610391578063c87b56dd146103c1578063e985e9c5146103f1578063eef616e314610421578063f2fde38b1461045157610142565b806383b54dff146102e35780638da5cb5b1461030157806391b68f221461031f57806395d89b411461033b578063a22cb4651461035957610142565b806334ee60c91161010a57806334ee60c9146101fd57806342842e0e1461022d5780636352211e1461024957806365a1456d1461027957806370a08231146102a9578063715018a6146102d957610142565b806301ffc9a71461014757806306fdde0314610177578063081812fc14610195578063095ea7b3146101c557806323b872dd146101e1575b600080fd5b610161600480360381019061015c919061220f565b61046d565b60405161016e9190612725565b60405180910390f35b61017f61054f565b60405161018c9190612740565b60405180910390f35b6101af60048036038101906101aa91906122b5565b6105e1565b6040516101bc919061269c565b60405180910390f35b6101df60048036038101906101da91906121d3565b610666565b005b6101fb60048036038101906101f691906120cd565b61077e565b005b61021760048036038101906102129190612068565b6107de565b6040516102249190612703565b60405180910390f35b610247600480360381019061024291906120cd565b610878565b005b610263600480360381019061025e91906122b5565b610898565b604051610270919061269c565b60405180910390f35b610293600480360381019061028e9190612068565b61094a565b6040516102a09190612703565b60405180910390f35b6102c360048036038101906102be9190612068565b6109e4565b6040516102d09190612942565b60405180910390f35b6102e1610a9c565b005b6102eb610b24565b6040516102f89190612703565b60405180910390f35b610309610b7c565b604051610316919061269c565b60405180910390f35b61033960048036038101906103349190612261565b610ba6565b005b610343610cfc565b6040516103509190612740565b60405180910390f35b610373600480360381019061036e9190612197565b610d8e565b005b61038f600480360381019061038a919061211c565b610da4565b005b6103ab60048036038101906103a691906122b5565b610e06565b6040516103b89190612942565b60405180910390f35b6103db60048036038101906103d691906122b5565b610e2a565b6040516103e89190612740565b60405180910390f35b61040b60048036038101906104069190612091565b610f21565b6040516104189190612725565b60405180910390f35b61043b60048036038101906104369190612068565b610fb5565b6040516104489190612703565b60405180910390f35b61046b60048036038101906104669190612068565b61104f565b005b60007f80ac58cd000000000000000000000000000000000000000000000000000000007bffffffffffffffffffffffffffffffffffffffffffffffffffffffff1916827bffffffffffffffffffffffffffffffffffffffffffffffffffffffff1916148061053857507f5b5e139f000000000000000000000000000000000000000000000000000000007bffffffffffffffffffffffffffffffffffffffffffffffffffffffff1916827bffffffffffffffffffffffffffffffffffffffffffffffffffffffff1916145b80610548575061054782611147565b5b9050919050565b60606000805461055e90612c2b565b80601f016020809104026020016040519081016040528092919081815260200182805461058a90612c2b565b80156105d75780601f106105ac576101008083540402835291602001916105d7565b820191906000526020600020905b8154815290600101906020018083116105ba57829003601f168201915b5050505050905090565b60006105ec826111b1565b61062b576040517f08c379a0000000000000000000000000000000000000000000000000000000008152600401610622906128c2565b60405180910390fd5b6004600083815260200190815260200160002060009054906101000a900473ffffffffffffffffffffffffffffffffffffffff169050919050565b600061067182610898565b90508073ffffffffffffffffffffffffffffffffffffffff168373ffffffffffffffffffffffffffffffffffffffff1614156106e2576040517f08c379a00000000000000000000000000000000000000000000000000000000081526004016106d990612902565b60405180910390fd5b8073ffffffffffffffffffffffffffffffffffffffff1661070161121d565b73ffffffffffffffffffffffffffffffffffffffff161480610730575061072f8161072a61121d565b610f21565b5b61076f576040517f08c379a000000000000000000000000000000000000000000000000000000000815260040161076690612842565b60405180910390fd5b6107798383611225565b505050565b61078f61078961121d565b826112de565b6107ce576040517f08c379a00000000000000000000000000000000000000000000000000000000081526004016107c590612922565b60405180910390fd5b6107d98383836113bc565b505050565b6060600a60008373ffffffffffffffffffffffffffffffffffffffff1673ffffffffffffffffffffffffffffffffffffffff16815260200190815260200160002060020180548060200260200160405190810160405280929190818152602001828054801561086c57602002820191906000526020600020905b815481526020019060010190808311610858575b50505050509050919050565b61089383838360405180602001604052806000815250610da4565b505050565b6000806002600084815260200190815260200160002060009054906101000a900473ffffffffffffffffffffffffffffffffffffffff169050600073ffffffffffffffffffffffffffffffffffffffff168173ffffffffffffffffffffffffffffffffffffffff161415610941576040517f08c379a000000000000000000000000000000000000000000000000000000000815260040161093890612882565b60405180910390fd5b80915050919050565b6060600a60008373ffffffffffffffffffffffffffffffffffffffff1673ffffffffffffffffffffffffffffffffffffffff1681526020019081526020016000206001018054806020026020016040519081016040528092919081815260200182805480156109d857602002820191906000526020600020905b8154815260200190600101908083116109c4575b50505050509050919050565b60008073ffffffffffffffffffffffffffffffffffffffff168273ffffffffffffffffffffffffffffffffffffffff161415610a55576040517f08c379a0000000000000000000000000000000000000000000000000000000008152600401610a4c90612862565b60405180910390fd5b600360008373ffffffffffffffffffffffffffffffffffffffff1673ffffffffffffffffffffffffffffffffffffffff168152602001908152602001600020549050919050565b610aa461121d565b73ffffffffffffffffffffffffffffffffffffffff16610ac2610b7c565b73ffffffffffffffffffffffffffffffffffffffff1614610b18576040517f08c379a0000000000000000000000000000000000000000000000000000000008152600401610b0f906128e2565b60405180910390fd5b610b226000611623565b565b60606009805480602002602001604051908101604052809291908181526020018280548015610b7257602002820191906000526020600020905b815481526020019060010190808311610b5e575b5050505050905090565b6000600660009054906101000a900473ffffffffffffffffffffffffffffffffffffffff16905090565b610bb060076116e9565b6000610bbc60076116ff565b905082600860008381526020019081526020016000209080519060200190610be5929190611e8c565b50610bf0338261170d565b8115610c6457600a60003373ffffffffffffffffffffffffffffffffffffffff1673ffffffffffffffffffffffffffffffffffffffff168152602001908152602001600020600101819080600181540180825580915050600190039060005260206000200160009091909190915055610cf7565b600a60003373ffffffffffffffffffffffffffffffffffffffff1673ffffffffffffffffffffffffffffffffffffffff16815260200190815260200160002060000181908060018154018082558091505060019003906000526020600020016000909190919091505560098190806001815401808255809150506001900390600052602060002001600090919091909150555b505050565b606060018054610d0b90612c2b565b80601f0160208091040260200160405190810160405280929190818152602001828054610d3790612c2b565b8015610d845780601f10610d5957610100808354040283529160200191610d84565b820191906000526020600020905b815481529060010190602001808311610d6757829003601f168201915b5050505050905090565b610da0610d9961121d565b838361172b565b5050565b610db5610daf61121d565b836112de565b610df4576040517f08c379a0000000000000000000000000000000000000000000000000000000008152600401610deb90612922565b60405180910390fd5b610e0084848484611898565b50505050565b60098181548110610e1657600080fd5b906000526020600020016000915090505481565b60606000600860008481526020019081526020016000208054610e4c90612c2b565b80601f0160208091040260200160405190810160405280929190818152602001828054610e7890612c2b565b8015610ec55780601f10610e9a57610100808354040283529160200191610ec5565b820191906000526020600020905b815481529060010190602001808311610ea857829003601f168201915b505050505090506000610ef682604051602001610ee29190612663565b6040516020818303038152906040526118f4565b905080604051602001610f09919061267a565b60405160208183030381529060405292505050919050565b6000600560008473ffffffffffffffffffffffffffffffffffffffff1673ffffffffffffffffffffffffffffffffffffffff16815260200190815260200160002060008373ffffffffffffffffffffffffffffffffffffffff1673ffffffffffffffffffffffffffffffffffffffff16815260200190815260200160002060009054906101000a900460ff16905092915050565b6060600a60008373ffffffffffffffffffffffffffffffffffffffff1673ffffffffffffffffffffffffffffffffffffffff16815260200190815260200160002060000180548060200260200160405190810160405280929190818152602001828054801561104357602002820191906000526020600020905b81548152602001906001019080831161102f575b50505050509050919050565b61105761121d565b73ffffffffffffffffffffffffffffffffffffffff16611075610b7c565b73ffffffffffffffffffffffffffffffffffffffff16146110cb576040517f08c379a00000000000000000000000000000000000000000000000000000000081526004016110c2906128e2565b60405180910390fd5b600073ffffffffffffffffffffffffffffffffffffffff168173ffffffffffffffffffffffffffffffffffffffff16141561113b576040517f08c379a000000000000000000000000000000000000000000000000000000000815260040161113290612782565b60405180910390fd5b61114481611623565b50565b60007f01ffc9a7000000000000000000000000000000000000000000000000000000007bffffffffffffffffffffffffffffffffffffffffffffffffffffffff1916827bffffffffffffffffffffffffffffffffffffffffffffffffffffffff1916149050919050565b60008073ffffffffffffffffffffffffffffffffffffffff166002600084815260200190815260200160002060009054906101000a900473ffffffffffffffffffffffffffffffffffffffff1673ffffffffffffffffffffffffffffffffffffffff1614159050919050565b600033905090565b816004600083815260200190815260200160002060006101000a81548173ffffffffffffffffffffffffffffffffffffffff021916908373ffffffffffffffffffffffffffffffffffffffff160217905550808273ffffffffffffffffffffffffffffffffffffffff1661129883610898565b73ffffffffffffffffffffffffffffffffffffffff167f8c5be1e5ebec7d5bd14f71427d1e84f3dd0314c0f7b2291e5b200ac8c7c3b92560405160405180910390a45050565b60006112e9826111b1565b611328576040517f08c379a000000000000000000000000000000000000000000000000000000000815260040161131f90612822565b60405180910390fd5b600061133383610898565b90508073ffffffffffffffffffffffffffffffffffffffff168473ffffffffffffffffffffffffffffffffffffffff1614806113a257508373ffffffffffffffffffffffffffffffffffffffff1661138a846105e1565b73ffffffffffffffffffffffffffffffffffffffff16145b806113b357506113b28185610f21565b5b91505092915050565b8273ffffffffffffffffffffffffffffffffffffffff166113dc82610898565b73ffffffffffffffffffffffffffffffffffffffff1614611432576040517f08c379a0000000000000000000000000000000000000000000000000000000008152600401611429906127a2565b60405180910390fd5b600073ffffffffffffffffffffffffffffffffffffffff168273ffffffffffffffffffffffffffffffffffffffff1614156114a2576040517f08c379a0000000000000000000000000000000000000000000000000000000008152600401611499906127e2565b60405180910390fd5b6114ad838383611a93565b6114b8600082611225565b6001600360008573ffffffffffffffffffffffffffffffffffffffff1673ffffffffffffffffffffffffffffffffffffffff16815260200190815260200160002060008282546115089190612b41565b925050819055506001600360008473ffffffffffffffffffffffffffffffffffffffff1673ffffffffffffffffffffffffffffffffffffffff168152602001908152602001600020600082825461155f9190612a60565b92505081905550816002600083815260200190815260200160002060006101000a81548173ffffffffffffffffffffffffffffffffffffffff021916908373ffffffffffffffffffffffffffffffffffffffff160217905550808273ffffffffffffffffffffffffffffffffffffffff168473ffffffffffffffffffffffffffffffffffffffff167fddf252ad1be2c89b69c2b068fc378daa952ba7f163c4a11628f55a4df523b3ef60405160405180910390a461161e838383611a98565b505050565b6000600660009054906101000a900473ffffffffffffffffffffffffffffffffffffffff16905081600660006101000a81548173ffffffffffffffffffffffffffffffffffffffff021916908373ffffffffffffffffffffffffffffffffffffffff1602179055508173ffffffffffffffffffffffffffffffffffffffff168173ffffffffffffffffffffffffffffffffffffffff167f8be0079c531659141344cd1fd0a4f28419497f9722a3daafe3b4186f6b6457e060405160405180910390a35050565b6001816000016000828254019250508190555050565b600081600001549050919050565b611727828260405180602001604052806000815250611a9d565b5050565b8173ffffffffffffffffffffffffffffffffffffffff168373ffffffffffffffffffffffffffffffffffffffff16141561179a576040517f08c379a000000000000000000000000000000000000000000000000000000000815260040161179190612802565b60405180910390fd5b80600560008573ffffffffffffffffffffffffffffffffffffffff1673ffffffffffffffffffffffffffffffffffffffff16815260200190815260200160002060008473ffffffffffffffffffffffffffffffffffffffff1673ffffffffffffffffffffffffffffffffffffffff16815260200190815260200160002060006101000a81548160ff0219169083151502179055508173ffffffffffffffffffffffffffffffffffffffff168373ffffffffffffffffffffffffffffffffffffffff167f17307eab39ab6107e8899845ad3d59bd9653f200f220920489ca2b5937696c318360405161188b9190612725565b60405180910390a3505050565b6118a38484846113bc565b6118af84848484611af8565b6118ee576040517f08c379a00000000000000000000000000000000000000000000000000000000081526004016118e590612762565b60405180910390fd5b50505050565b606060008251141561191757604051806020016040528060008152509050611a8e565b60006040518060600160405280604081526020016131ea60409139905060006003600285516119469190612a60565b6119509190612ab6565b600461195c9190612ae7565b9050600060208261196d9190612a60565b67ffffffffffffffff8111156119ac577f4e487b7100000000000000000000000000000000000000000000000000000000600052604160045260246000fd5b6040519080825280601f01601f1916602001820160405280156119de5781602001600182028036833780820191505090505b509050818152600183018586518101602084015b81831015611a4d576003830192508251603f8160121c168501518253600182019150603f81600c1c168501518253600182019150603f8160061c168501518253600182019150603f81168501518253600182019150506119f2565b600389510660018114611a675760028114611a7757611a82565b613d3d60f01b6002830352611a82565b603d60f81b60018303525b50505050508093505050505b919050565b505050565b505050565b611aa78383611c8f565b611ab46000848484611af8565b611af3576040517f08c379a0000000000000000000000000000000000000000000000000000000008152600401611aea90612762565b60405180910390fd5b505050565b6000611b198473ffffffffffffffffffffffffffffffffffffffff16611e69565b15611c82578373ffffffffffffffffffffffffffffffffffffffff1663150b7a02611b4261121d565b8786866040518563ffffffff1660e01b8152600401611b6494939291906126b7565b602060405180830381600087803b158015611b7e57600080fd5b505af1925050508015611baf57506040513d601f19601f82011682018060405250810190611bac9190612238565b60015b611c32573d8060008114611bdf576040519150601f19603f3d011682016040523d82523d6000602084013e611be4565b606091505b50600081511415611c2a576040517f08c379a0000000000000000000000000000000000000000000000000000000008152600401611c2190612762565b60405180910390fd5b805181602001fd5b63150b7a0260e01b7bffffffffffffffffffffffffffffffffffffffffffffffffffffffff1916817bffffffffffffffffffffffffffffffffffffffffffffffffffffffff191614915050611c87565b600190505b949350505050565b600073ffffffffffffffffffffffffffffffffffffffff168273ffffffffffffffffffffffffffffffffffffffff161415611cff576040517f08c379a0000000000000000000000000000000000000000000000000000000008152600401611cf6906128a2565b60405180910390fd5b611d08816111b1565b15611d48576040517f08c379a0000000000000000000000000000000000000000000000000000000008152600401611d3f906127c2565b60405180910390fd5b611d5460008383611a93565b6001600360008473ffffffffffffffffffffffffffffffffffffffff1673ffffffffffffffffffffffffffffffffffffffff1681526020019081526020016000206000828254611da49190612a60565b92505081905550816002600083815260200190815260200160002060006101000a81548173ffffffffffffffffffffffffffffffffffffffff021916908373ffffffffffffffffffffffffffffffffffffffff160217905550808273ffffffffffffffffffffffffffffffffffffffff16600073ffffffffffffffffffffffffffffffffffffffff167fddf252ad1be2c89b69c2b068fc378daa952ba7f163c4a11628f55a4df523b3ef60405160405180910390a4611e6560008383611a98565b5050565b6000808273ffffffffffffffffffffffffffffffffffffffff163b119050919050565b828054611e9890612c2b565b90600052602060002090601f016020900481019282611eba5760008555611f01565b82601f10611ed357805160ff1916838001178555611f01565b82800160010185558215611f01579182015b82811115611f00578251825591602001919060010190611ee5565b5b509050611f0e9190611f12565b5090565b5b80821115611f2b576000816000905550600101611f13565b5090565b6000611f42611f3d84612982565b61295d565b905082815260208101848484011115611f5a57600080fd5b611f65848285612be9565b509392505050565b6000611f80611f7b846129b3565b61295d565b905082815260208101848484011115611f9857600080fd5b611fa3848285612be9565b509392505050565b600081359050611fba8161318d565b92915050565b600081359050611fcf816131a4565b92915050565b600081359050611fe4816131bb565b92915050565b600081519050611ff9816131bb565b92915050565b600082601f83011261201057600080fd5b8135612020848260208601611f2f565b91505092915050565b600082601f83011261203a57600080fd5b813561204a848260208601611f6d565b91505092915050565b600081359050612062816131d2565b92915050565b60006020828403121561207a57600080fd5b600061208884828501611fab565b91505092915050565b600080604083850312156120a457600080fd5b60006120b285828601611fab565b92505060206120c385828601611fab565b9150509250929050565b6000806000606084860312156120e257600080fd5b60006120f086828701611fab565b935050602061210186828701611fab565b925050604061211286828701612053565b9150509250925092565b6000806000806080858703121561213257600080fd5b600061214087828801611fab565b945050602061215187828801611fab565b935050604061216287828801612053565b925050606085013567ffffffffffffffff81111561217f57600080fd5b61218b87828801611fff565b91505092959194509250565b600080604083850312156121aa57600080fd5b60006121b885828601611fab565b92505060206121c985828601611fc0565b9150509250929050565b600080604083850312156121e657600080fd5b60006121f485828601611fab565b925050602061220585828601612053565b9150509250929050565b60006020828403121561222157600080fd5b600061222f84828501611fd5565b91505092915050565b60006020828403121561224a57600080fd5b600061225884828501611fea565b91505092915050565b6000806040838503121561227457600080fd5b600083013567ffffffffffffffff81111561228e57600080fd5b61229a85828601612029565b92505060206122ab85828601611fc0565b9150509250929050565b6000602082840312156122c757600080fd5b60006122d584828501612053565b91505092915050565b60006122ea8383612645565b60208301905092915050565b6122ff81612b75565b82525050565b6000612310826129f4565b61231a8185612a22565b9350612325836129e4565b8060005b8381101561235657815161233d88826122de565b975061234883612a15565b925050600181019050612329565b5085935050505092915050565b61236c81612b87565b82525050565b600061237d826129ff565b6123878185612a33565b9350612397818560208601612bf8565b6123a081612d4a565b840191505092915050565b60006123b682612a0a565b6123c08185612a44565b93506123d0818560208601612bf8565b6123d981612d4a565b840191505092915050565b60006123ef82612a0a565b6123f98185612a55565b9350612409818560208601612bf8565b80840191505092915050565b6000612422603283612a44565b915061242d82612d5b565b604082019050919050565b6000612445602683612a44565b915061245082612daa565b604082019050919050565b6000612468602583612a44565b915061247382612df9565b604082019050919050565b600061248b601c83612a44565b915061249682612e48565b602082019050919050565b60006124ae602483612a44565b91506124b982612e71565b604082019050919050565b60006124d1601983612a44565b91506124dc82612ec0565b602082019050919050565b60006124f4602c83612a44565b91506124ff82612ee9565b604082019050919050565b6000612517603883612a44565b915061252282612f38565b604082019050919050565b600061253a602a83612a44565b915061254582612f87565b604082019050919050565b600061255d602983612a44565b915061256882612fd6565b604082019050919050565b6000612580602083612a44565b915061258b82613025565b602082019050919050565b60006125a3602c83612a44565b91506125ae8261304e565b604082019050919050565b60006125c6602083612a44565b91506125d18261309d565b602082019050919050565b60006125e9602183612a44565b91506125f4826130c6565b604082019050919050565b600061260c601d83612a55565b915061261782613115565b601d82019050919050565b600061262f603183612a44565b915061263a8261313e565b604082019050919050565b61264e81612bdf565b82525050565b61265d81612bdf565b82525050565b600061266f82846123e4565b915081905092915050565b6000612685826125ff565b915061269182846123e4565b915081905092915050565b60006020820190506126b160008301846122f6565b92915050565b60006080820190506126cc60008301876122f6565b6126d960208301866122f6565b6126e66040830185612654565b81810360608301526126f88184612372565b905095945050505050565b6000602082019050818103600083015261271d8184612305565b905092915050565b600060208201905061273a6000830184612363565b92915050565b6000602082019050818103600083015261275a81846123ab565b905092915050565b6000602082019050818103600083015261277b81612415565b9050919050565b6000602082019050818103600083015261279b81612438565b9050919050565b600060208201905081810360008301526127bb8161245b565b9050919050565b600060208201905081810360008301526127db8161247e565b9050919050565b600060208201905081810360008301526127fb816124a1565b9050919050565b6000602082019050818103600083015261281b816124c4565b9050919050565b6000602082019050818103600083015261283b816124e7565b9050919050565b6000602082019050818103600083015261285b8161250a565b9050919050565b6000602082019050818103600083015261287b8161252d565b9050919050565b6000602082019050818103600083015261289b81612550565b9050919050565b600060208201905081810360008301526128bb81612573565b9050919050565b600060208201905081810360008301526128db81612596565b9050919050565b600060208201905081810360008301526128fb816125b9565b9050919050565b6000602082019050818103600083015261291b816125dc565b9050919050565b6000602082019050818103600083015261293b81612622565b9050919050565b60006020820190506129576000830184612654565b92915050565b6000612967612978565b90506129738282612c5d565b919050565b6000604051905090565b600067ffffffffffffffff82111561299d5761299c612d1b565b5b6129a682612d4a565b9050602081019050919050565b600067ffffffffffffffff8211156129ce576129cd612d1b565b5b6129d782612d4a565b9050602081019050919050565b6000819050602082019050919050565b600081519050919050565b600081519050919050565b600081519050919050565b6000602082019050919050565b600082825260208201905092915050565b600082825260208201905092915050565b600082825260208201905092915050565b600081905092915050565b6000612a6b82612bdf565b9150612a7683612bdf565b9250827fffffffffffffffffffffffffffffffffffffffffffffffffffffffffffffffff03821115612aab57612aaa612c8e565b5b828201905092915050565b6000612ac182612bdf565b9150612acc83612bdf565b925082612adc57612adb612cbd565b5b828204905092915050565b6000612af282612bdf565b9150612afd83612bdf565b9250817fffffffffffffffffffffffffffffffffffffffffffffffffffffffffffffffff0483118215151615612b3657612b35612c8e565b5b828202905092915050565b6000612b4c82612bdf565b9150612b5783612bdf565b925082821015612b6a57612b69612c8e565b5b828203905092915050565b6000612b8082612bbf565b9050919050565b60008115159050919050565b60007fffffffff0000000000000000000000000000000000000000000000000000000082169050919050565b600073ffffffffffffffffffffffffffffffffffffffff82169050919050565b6000819050919050565b82818337600083830152505050565b60005b83811015612c16578082015181840152602081019050612bfb565b83811115612c25576000848401525b50505050565b60006002820490506001821680612c4357607f821691505b60208210811415612c5757612c56612cec565b5b50919050565b612c6682612d4a565b810181811067ffffffffffffffff82111715612c8557612c84612d1b565b5b80604052505050565b7f4e487b7100000000000000000000000000000000000000000000000000000000600052601160045260246000fd5b7f4e487b7100000000000000000000000000000000000000000000000000000000600052601260045260246000fd5b7f4e487b7100000000000000000000000000000000000000000000000000000000600052602260045260246000fd5b7f4e487b7100000000000000000000000000000000000000000000000000000000600052604160045260246000fd5b6000601f19601f8301169050919050565b7f4552433732313a207472616e7366657220746f206e6f6e20455243373231526560008201527f63656976657220696d706c656d656e7465720000000000000000000000000000602082015250565b7f4f776e61626c653a206e6577206f776e657220697320746865207a65726f206160008201527f6464726573730000000000000000000000000000000000000000000000000000602082015250565b7f4552433732313a207472616e736665722066726f6d20696e636f72726563742060008201527f6f776e6572000000000000000000000000000000000000000000000000000000602082015250565b7f4552433732313a20746f6b656e20616c7265616479206d696e74656400000000600082015250565b7f4552433732313a207472616e7366657220746f20746865207a65726f2061646460008201527f7265737300000000000000000000000000000000000000000000000000000000602082015250565b7f4552433732313a20617070726f766520746f2063616c6c657200000000000000600082015250565b7f4552433732313a206f70657261746f7220717565727920666f72206e6f6e657860008201527f697374656e7420746f6b656e0000000000000000000000000000000000000000602082015250565b7f4552433732313a20617070726f76652063616c6c6572206973206e6f74206f7760008201527f6e6572206e6f7220617070726f76656420666f7220616c6c0000000000000000602082015250565b7f4552433732313a2062616c616e636520717565727920666f7220746865207a6560008201527f726f206164647265737300000000000000000000000000000000000000000000602082015250565b7f4552433732313a206f776e657220717565727920666f72206e6f6e657869737460008201527f656e7420746f6b656e0000000000000000000000000000000000000000000000602082015250565b7f4552433732313a206d696e7420746f20746865207a65726f2061646472657373600082015250565b7f4552433732313a20617070726f76656420717565727920666f72206e6f6e657860008201527f697374656e7420746f6b656e0000000000000000000000000000000000000000602082015250565b7f4f776e61626c653a2063616c6c6572206973206e6f7420746865206f776e6572600082015250565b7f4552433732313a20617070726f76616c20746f2063757272656e74206f776e6560008201527f7200000000000000000000000000000000000000000000000000000000000000602082015250565b7f646174613a6170706c69636174696f6e2f6a736f6e3b6261736536342c000000600082015250565b7f4552433732313a207472616e736665722063616c6c6572206973206e6f74206f60008201527f776e6572206e6f7220617070726f766564000000000000000000000000000000602082015250565b61319681612b75565b81146131a157600080fd5b50565b6131ad81612b87565b81146131b857600080fd5b50565b6131c481612b93565b81146131cf57600080fd5b50565b6131db81612bdf565b81146131e657600080fd5b5056fe4142434445464748494a4b4c4d4e4f505152535455565758595a6162636465666768696a6b6c6d6e6f707172737475767778797a303132333435363738392b2fa2646970667358221220834865fe412c270598440a5a9b8b1541d75a0e32886fc390476822196ef0739464736f6c63430008040033",
  "linkReferences": {},
  "deployedLinkReferences": {}
}