{
  "_format": "hh-sol-artifact-1",
  "contractName": "Upbox",
  "sourceName": "contracts/Upbox.sol",
  "abi": [
    {
      "inputs": [],
      "stateMutability": "nonpayable",
      "type": "constructor"
    },
    {
      "anonymous": false,
      "inputs": [
        {
          "indexed": true,
          "internalType": "address",
          "name": "owner",
          "type": "address"
        },
        {
          "indexed": true,
          "internalType": "address",
          "name": "approved",
          "type": "address"
        },
        {
          "indexed": true,
          "internalType": "uint256",
          "name": "tokenId",
          "type": "uint256"
        }
      ],
      "name": "Approval",
      "type": "event"
    },
    {
      "anonymous": false,
      "inputs": [
        {
          "indexed": true,
          "internalType": "address",
          "name": "owner",
          "type": "address"
        },
        {
          "indexed": true,
          "internalType": "address",
          "name": "operator",
          "type": "address"
        },
        {
          "indexed": false,
          "internalType": "bool",
          "name": "approved",
          "type": "bool"
        }
      ],
      "name": "ApprovalForAll",
      "type": "event"
    },
    {
      "anonymous": false,
      "inputs": [
        {
          "indexed": false,
          "internalType": "address",
          "name": "_to",
          "type": "address"
        },
        {
          "indexed": false,
          "internalType": "uint256",
          "name": "_tokenId",
          "type": "uint256"
        }
      ],
      "name": "FileShared",
      "type": "event"
    },
    {
      "anonymous": false,
      "inputs": [
        {
          "indexed": false,
          "internalType": "address",
          "name": "_user",
          "type": "address"
        },
        {
          "indexed": false,
          "internalType": "uint256",
          "name": "_tokenId",
          "type": "uint256"
        }
      ],
      "name": "FileUploaded",
      "type": "event"
    },
    {
      "anonymous": false,
      "inputs": [
        {
          "indexed": true,
          "internalType": "address",
          "name": "previousOwner",
          "type": "address"
        },
        {
          "indexed": true,
          "internalType": "address",
          "name": "newOwner",
          "type": "address"
        }
      ],
      "name": "OwnershipTransferred",
      "type": "event"
    },
    {
      "anonymous": false,
      "inputs": [
        {
          "indexed": true,
          "internalType": "address",
          "name": "from",
          "type": "address"
        },
        {
          "indexed": true,
          "internalType": "address",
          "name": "to",
          "type": "address"
        },
        {
          "indexed": true,
          "internalType": "uint256",
          "name": "tokenId",
          "type": "uint256"
        }
      ],
      "name": "Transfer",
      "type": "event"
    },
    {
      "inputs": [
        {
          "internalType": "address",
          "name": "_userAddress",
          "type": "address"
        }
      ],
      "name": "addblackListedUser",
      "outputs": [],
      "stateMutability": "nonpayable",
      "type": "function"
    },
    {
      "inputs": [
        {
          "internalType": "address",
          "name": "to",
          "type": "address"
        },
        {
          "internalType": "uint256",
          "name": "tokenId",
          "type": "uint256"
        }
      ],
      "name": "approve",
      "outputs": [],
      "stateMutability": "nonpayable",
      "type": "function"
    },
    {
      "inputs": [
        {
          "internalType": "address",
          "name": "owner",
          "type": "address"
        }
      ],
      "name": "balanceOf",
      "outputs": [
        {
          "internalType": "uint256",
          "name": "",
          "type": "uint256"
        }
      ],
      "stateMutability": "view",
      "type": "function"
    },
    {
      "inputs": [
        {
          "internalType": "uint256",
          "name": "",
          "type": "uint256"
        }
      ],
      "name": "blackListedUsers",
      "outputs": [
        {
          "internalType": "address",
          "name": "",
          "type": "address"
        }
      ],
      "stateMutability": "view",
      "type": "function"
    },
    {
      "inputs": [],
      "name": "destroy",
      "outputs": [],
      "stateMutability": "nonpayable",
      "type": "function"
    },
    {
      "inputs": [],
      "name": "getAllPublicTokens",
      "outputs": [
        {
          "internalType": "uint256[]",
          "name": "",
          "type": "uint256[]"
        }
      ],
      "stateMutability": "view",
      "type": "function"
    },
    {
      "inputs": [
        {
          "internalType": "uint256",
          "name": "tokenId",
          "type": "uint256"
        }
      ],
      "name": "getApproved",
      "outputs": [
        {
          "internalType": "address",
          "name": "",
          "type": "address"
        }
      ],
      "stateMutability": "view",
      "type": "function"
    },
    {
      "inputs": [],
      "name": "getMyPrivateTokens",
      "outputs": [
        {
          "internalType": "uint256[]",
          "name": "",
          "type": "uint256[]"
        }
      ],
      "stateMutability": "view",
      "type": "function"
    },
    {
      "inputs": [],
      "name": "getMyPublicTokens",
      "outputs": [
        {
          "internalType": "uint256[]",
          "name": "",
          "type": "uint256[]"
        }
      ],
      "stateMutability": "view",
      "type": "function"
    },
    {
      "inputs": [],
      "name": "getMyRecievedTokens",
      "outputs": [
        {
          "internalType": "uint256[]",
          "name": "",
          "type": "uint256[]"
        }
      ],
      "stateMutability": "view",
      "type": "function"
    },
    {
      "inputs": [],
      "name": "getblackListedUsers",
      "outputs": [
        {
          "internalType": "address[]",
          "name": "",
          "type": "address[]"
        }
      ],
      "stateMutability": "view",
      "type": "function"
    },
    {
      "inputs": [],
      "name": "isAdmin",
      "outputs": [
        {
          "internalType": "bool",
          "name": "",
          "type": "bool"
        }
      ],
      "stateMutability": "view",
      "type": "function"
    },
    {
      "inputs": [
        {
          "internalType": "address",
          "name": "owner",
          "type": "address"
        },
        {
          "internalType": "address",
          "name": "operator",
          "type": "address"
        }
      ],
      "name": "isApprovedForAll",
      "outputs": [
        {
          "internalType": "bool",
          "name": "",
          "type": "bool"
        }
      ],
      "stateMutability": "view",
      "type": "function"
    },
    {
      "inputs": [],
      "name": "name",
      "outputs": [
        {
          "internalType": "string",
          "name": "",
          "type": "string"
        }
      ],
      "stateMutability": "view",
      "type": "function"
    },
    {
      "inputs": [],
      "name": "owner",
      "outputs": [
        {
          "internalType": "address",
          "name": "",
          "type": "address"
        }
      ],
      "stateMutability": "view",
      "type": "function"
    },
    {
      "inputs": [
        {
          "internalType": "uint256",
          "name": "tokenId",
          "type": "uint256"
        }
      ],
      "name": "ownerOf",
      "outputs": [
        {
          "internalType": "address",
          "name": "",
          "type": "address"
        }
      ],
      "stateMutability": "view",
      "type": "function"
    },
    {
      "inputs": [
        {
          "internalType": "uint256",
          "name": "",
          "type": "uint256"
        }
      ],
      "name": "publicTokensIds",
      "outputs": [
        {
          "internalType": "uint256",
          "name": "",
          "type": "uint256"
        }
      ],
      "stateMutability": "view",
      "type": "function"
    },
    {
      "inputs": [
        {
          "internalType": "uint256",
          "name": "_index",
          "type": "uint256"
        }
      ],
      "name": "removePublicTokens",
      "outputs": [],
      "stateMutability": "nonpayable",
      "type": "function"
    },
    {
      "inputs": [],
      "name": "renounceOwnership",
      "outputs": [],
      "stateMutability": "nonpayable",
      "type": "function"
    },
    {
      "inputs": [
        {
          "internalType": "address",
          "name": "from",
          "type": "address"
        },
        {
          "internalType": "address",
          "name": "to",
          "type": "address"
        },
        {
          "internalType": "uint256",
          "name": "tokenId",
          "type": "uint256"
        }
      ],
      "name": "safeTransferFrom",
      "outputs": [],
      "stateMutability": "nonpayable",
      "type": "function"
    },
    {
      "inputs": [
        {
          "internalType": "address",
          "name": "from",
          "type": "address"
        },
        {
          "internalType": "address",
          "name": "to",
          "type": "address"
        },
        {
          "internalType": "uint256",
          "name": "tokenId",
          "type": "uint256"
        },
        {
          "internalType": "bytes",
          "name": "_data",
          "type": "bytes"
        }
      ],
      "name": "safeTransferFrom",
      "outputs": [],
      "stateMutability": "nonpayable",
      "type": "function"
    },
    {
      "inputs": [
        {
          "internalType": "address",
          "name": "operator",
          "type": "address"
        },
        {
          "internalType": "bool",
          "name": "approved",
          "type": "bool"
        }
      ],
      "name": "setApprovalForAll",
      "outputs": [],
      "stateMutability": "nonpayable",
      "type": "function"
    },
    {
      "inputs": [
        {
          "internalType": "address",
          "name": "_to",
          "type": "address"
        },
        {
          "internalType": "uint256",
          "name": "_tokenId",
          "type": "uint256"
        }
      ],
      "name": "shareToken",
      "outputs": [],
      "stateMutability": "nonpayable",
      "type": "function"
    },
    {
      "inputs": [
        {
          "internalType": "bytes4",
          "name": "interfaceId",
          "type": "bytes4"
        }
      ],
      "name": "supportsInterface",
      "outputs": [
        {
          "internalType": "bool",
          "name": "",
          "type": "bool"
        }
      ],
      "stateMutability": "view",
      "type": "function"
    },
    {
      "inputs": [],
      "name": "symbol",
      "outputs": [
        {
          "internalType": "string",
          "name": "",
          "type": "string"
        }
      ],
      "stateMutability": "view",
      "type": "function"
    },
    {
      "inputs": [
        {
          "internalType": "uint256",
          "name": "tokenId",
          "type": "uint256"
        }
      ],
      "name": "tokenURI",
      "outputs": [
        {
          "internalType": "string",
          "name": "",
          "type": "string"
        }
      ],
      "stateMutability": "view",
      "type": "function"
    },
    {
      "inputs": [
        {
          "internalType": "address",
          "name": "from",
          "type": "address"
        },
        {
          "internalType": "address",
          "name": "to",
          "type": "address"
        },
        {
          "internalType": "uint256",
          "name": "tokenId",
          "type": "uint256"
        }
      ],
      "name": "transferFrom",
      "outputs": [],
      "stateMutability": "nonpayable",
      "type": "function"
    },
    {
      "inputs": [
        {
          "internalType": "address",
          "name": "newOwner",
          "type": "address"
        }
      ],
      "name": "transferOwnership",
      "outputs": [],
      "stateMutability": "nonpayable",
      "type": "function"
    },
    {
      "inputs": [
        {
          "internalType": "string",
          "name": "input",
          "type": "string"
        },
        {
          "internalType": "bool",
          "name": "_isPrivate",
          "type": "bool"
        }
      ],
      "name": "uploadFile",
      "outputs": [],
      "stateMutability": "nonpayable",
      "type": "function"
    }
  ],
  "bytecode": "0x60806040523480156200001157600080fd5b506040518060400160405280600581526020017f5570626f780000000000000000000000000000000000000000000000000000008152506040518060400160405280600381526020017f424f580000000000000000000000000000000000000000000000000000000000815250816000908051906020019062000096929190620001e7565b508060019080519060200190620000af929190620001e7565b505050620000d2620000c66200011960201b60201c565b6200012160201b60201c565b33600c60006101000a81548173ffffffffffffffffffffffffffffffffffffffff021916908373ffffffffffffffffffffffffffffffffffffffff160217905550620002fc565b600033905090565b6000600660009054906101000a900473ffffffffffffffffffffffffffffffffffffffff16905081600660006101000a81548173ffffffffffffffffffffffffffffffffffffffff021916908373ffffffffffffffffffffffffffffffffffffffff1602179055508173ffffffffffffffffffffffffffffffffffffffff168173ffffffffffffffffffffffffffffffffffffffff167f8be0079c531659141344cd1fd0a4f28419497f9722a3daafe3b4186f6b6457e060405160405180910390a35050565b828054620001f59062000297565b90600052602060002090601f01602090048101928262000219576000855562000265565b82601f106200023457805160ff191683800117855562000265565b8280016001018555821562000265579182015b828111156200026457825182559160200191906001019062000247565b5b50905062000274919062000278565b5090565b5b808211156200029357600081600090555060010162000279565b5090565b60006002820490506001821680620002b057607f821691505b60208210811415620002c757620002c6620002cd565b5b50919050565b7f4e487b7100000000000000000000000000000000000000000000000000000000600052602260045260246000fd5b613b80806200030c6000396000f3fe608060405234801561001057600080fd5b50600436106101cf5760003560e01c80638593ff6f11610104578063a5e6ca9a116100a2578063c4f66ed111610071578063c4f66ed1146104e2578063c87b56dd14610512578063e985e9c514610542578063f2fde38b14610572576101cf565b8063a5e6ca9a1461046e578063b6db75a01461048c578063b88d4fde146104aa578063c181f580146104c6576101cf565b806391b68f22116100de57806391b68f22146103e857806395d89b41146104045780639ff2be4414610422578063a22cb46514610452576101cf565b80638593ff6f1461039057806389e6fa5c146103ae5780638da5cb5b146103ca576101cf565b80636352211e11610171578063715018a61161014b578063715018a61461034257806373d9df031461034c57806383197ef01461036857806383b54dff14610372576101cf565b80636352211e146102c457806370a08231146102f457806370c0d74514610324576101cf565b8063095ea7b3116101ad578063095ea7b31461025257806323b872dd1461026e5780633891fa641461028a57806342842e0e146102a8576101cf565b806301ffc9a7146101d457806306fdde0314610204578063081812fc14610222575b600080fd5b6101ee60048036038101906101e99190612906565b61058e565b6040516101fb9190612f32565b60405180910390f35b61020c610670565b6040516102199190612f4d565b60405180910390f35b61023c600480360381019061023791906129ac565b610702565b6040516102499190612e5e565b60405180910390f35b61026c600480360381019061026791906128ca565b610787565b005b610288600480360381019061028391906127c4565b61089f565b005b6102926108ff565b60405161029f9190612f10565b60405180910390f35b6102c260048036038101906102bd91906127c4565b610997565b005b6102de60048036038101906102d991906129ac565b6109b7565b6040516102eb9190612e5e565b60405180910390f35b61030e6004803603810190610309919061275f565b610a69565b60405161031b919061318f565b60405180910390f35b61032c610b21565b6040516103399190612f10565b60405180910390f35b61034a610bb9565b005b6103666004803603810190610361919061275f565b610c41565b005b610370610d23565b005b61037a610dbf565b6040516103879190612f10565b60405180910390f35b610398610e17565b6040516103a59190612eee565b60405180910390f35b6103c860048036038101906103c391906129ac565b610ea5565b005b6103d2611085565b6040516103df9190612e5e565b60405180910390f35b61040260048036038101906103fd9190612958565b6110af565b005b61040c61123e565b6040516104199190612f4d565b60405180910390f35b61043c600480360381019061043791906129ac565b6112d0565b6040516104499190612e5e565b60405180910390f35b61046c6004803603810190610467919061288e565b61130f565b005b610476611325565b6040516104839190612f10565b60405180910390f35b6104946113bd565b6040516104a19190612f32565b60405180910390f35b6104c460048036038101906104bf9190612813565b611426565b005b6104e060048036038101906104db91906128ca565b611488565b005b6104fc60048036038101906104f791906129ac565b61152e565b604051610509919061318f565b60405180910390f35b61052c600480360381019061052791906129ac565b611552565b6040516105399190612f4d565b60405180910390f35b61055c60048036038101906105579190612788565b6116c7565b6040516105699190612f32565b60405180910390f35b61058c6004803603810190610587919061275f565b61175b565b005b60007f80ac58cd000000000000000000000000000000000000000000000000000000007bffffffffffffffffffffffffffffffffffffffffffffffffffffffff1916827bffffffffffffffffffffffffffffffffffffffffffffffffffffffff1916148061065957507f5b5e139f000000000000000000000000000000000000000000000000000000007bffffffffffffffffffffffffffffffffffffffffffffffffffffffff1916827bffffffffffffffffffffffffffffffffffffffffffffffffffffffff1916145b80610669575061066882611853565b5b9050919050565b60606000805461067f906134b1565b80601f01602080910402602001604051908101604052809291908181526020018280546106ab906134b1565b80156106f85780601f106106cd576101008083540402835291602001916106f8565b820191906000526020600020905b8154815290600101906020018083116106db57829003601f168201915b5050505050905090565b600061070d826118bd565b61074c576040517f08c379a00000000000000000000000000000000000000000000000000000000081526004016107439061310f565b60405180910390fd5b6004600083815260200190815260200160002060009054906101000a900473ffffffffffffffffffffffffffffffffffffffff169050919050565b6000610792826109b7565b90508073ffffffffffffffffffffffffffffffffffffffff168373ffffffffffffffffffffffffffffffffffffffff161415610803576040517f08c379a00000000000000000000000000000000000000000000000000000000081526004016107fa9061314f565b60405180910390fd5b8073ffffffffffffffffffffffffffffffffffffffff16610822611929565b73ffffffffffffffffffffffffffffffffffffffff16148061085157506108508161084b611929565b6116c7565b5b610890576040517f08c379a00000000000000000000000000000000000000000000000000000000081526004016108879061306f565b60405180910390fd5b61089a8383611931565b505050565b6108b06108aa611929565b826119ea565b6108ef576040517f08c379a00000000000000000000000000000000000000000000000000000000081526004016108e69061316f565b60405180910390fd5b6108fa838383611ac8565b505050565b6060600b60003373ffffffffffffffffffffffffffffffffffffffff1673ffffffffffffffffffffffffffffffffffffffff16815260200190815260200160002060010180548060200260200160405190810160405280929190818152602001828054801561098d57602002820191906000526020600020905b815481526020019060010190808311610979575b5050505050905090565b6109b283838360405180602001604052806000815250611426565b505050565b6000806002600084815260200190815260200160002060009054906101000a900473ffffffffffffffffffffffffffffffffffffffff169050600073ffffffffffffffffffffffffffffffffffffffff168173ffffffffffffffffffffffffffffffffffffffff161415610a60576040517f08c379a0000000000000000000000000000000000000000000000000000000008152600401610a57906130af565b60405180910390fd5b80915050919050565b60008073ffffffffffffffffffffffffffffffffffffffff168273ffffffffffffffffffffffffffffffffffffffff161415610ada576040517f08c379a0000000000000000000000000000000000000000000000000000000008152600401610ad19061308f565b60405180910390fd5b600360008373ffffffffffffffffffffffffffffffffffffffff1673ffffffffffffffffffffffffffffffffffffffff168152602001908152602001600020549050919050565b6060600b60003373ffffffffffffffffffffffffffffffffffffffff1673ffffffffffffffffffffffffffffffffffffffff168152602001908152602001600020600001805480602002602001604051908101604052809291908181526020018280548015610baf57602002820191906000526020600020905b815481526020019060010190808311610b9b575b5050505050905090565b610bc1611929565b73ffffffffffffffffffffffffffffffffffffffff16610bdf611085565b73ffffffffffffffffffffffffffffffffffffffff1614610c35576040517f08c379a0000000000000000000000000000000000000000000000000000000008152600401610c2c9061312f565b60405180910390fd5b610c3f6000611d2f565b565b610c49611929565b73ffffffffffffffffffffffffffffffffffffffff16610c67611085565b73ffffffffffffffffffffffffffffffffffffffff1614610cbd576040517f08c379a0000000000000000000000000000000000000000000000000000000008152600401610cb49061312f565b60405180910390fd5b6009819080600181540180825580915050600190039060005260206000200160009091909190916101000a81548173ffffffffffffffffffffffffffffffffffffffff021916908373ffffffffffffffffffffffffffffffffffffffff16021790555050565b610d2b611929565b73ffffffffffffffffffffffffffffffffffffffff16610d49611085565b73ffffffffffffffffffffffffffffffffffffffff1614610d9f576040517f08c379a0000000000000000000000000000000000000000000000000000000008152600401610d969061312f565b60405180910390fd5b610da7611085565b73ffffffffffffffffffffffffffffffffffffffff16ff5b60606008805480602002602001604051908101604052809291908181526020018280548015610e0d57602002820191906000526020600020905b815481526020019060010190808311610df9575b5050505050905090565b60606009805480602002602001604051908101604052809291908181526020018280548015610e9b57602002820191906000526020600020905b8160009054906101000a900473ffffffffffffffffffffffffffffffffffffffff1673ffffffffffffffffffffffffffffffffffffffff1681526020019060010190808311610e51575b5050505050905090565b610ead611929565b73ffffffffffffffffffffffffffffffffffffffff16610ecb611085565b73ffffffffffffffffffffffffffffffffffffffff1614610f21576040517f08c379a0000000000000000000000000000000000000000000000000000000008152600401610f189061312f565b60405180910390fd5b6008805490508110610f68576040517f08c379a0000000000000000000000000000000000000000000000000000000008152600401610f5f90612f6f565b60405180910390fd5b60008190505b6001600880549050610f8091906133c7565b811015611033576008600182610f9691906132e6565b81548110610fcd577f4e487b7100000000000000000000000000000000000000000000000000000000600052603260045260246000fd5b906000526020600020015460088281548110611012577f4e487b7100000000000000000000000000000000000000000000000000000000600052603260045260246000fd5b9060005260206000200181905550808061102b90613514565b915050610f6e565b50600880548061106c577f4e487b7100000000000000000000000000000000000000000000000000000000600052603160045260246000fd5b6001900381819060005260206000200160009055905550565b6000600660009054906101000a900473ffffffffffffffffffffffffffffffffffffffff16905090565b6110b96007611df5565b60006110c56007611e0b565b905082600a600083815260200190815260200160002090805190602001906110ee929190612583565b506110f93382611e19565b811561116d57600b60003373ffffffffffffffffffffffffffffffffffffffff1673ffffffffffffffffffffffffffffffffffffffff168152602001908152602001600020600101819080600181540180825580915050600190039060005260206000200160009091909190915055611200565b600b60003373ffffffffffffffffffffffffffffffffffffffff1673ffffffffffffffffffffffffffffffffffffffff16815260200190815260200160002060000181908060018154018082558091505060019003906000526020600020016000909190919091505560088190806001815401808255809150506001900390600052602060002001600090919091909150555b7f52a5e47232258119382e5fc7b7f1aeee2246eda849f54f32d8e7a48dbf3371133382604051611231929190612ec5565b60405180910390a1505050565b60606001805461124d906134b1565b80601f0160208091040260200160405190810160405280929190818152602001828054611279906134b1565b80156112c65780601f1061129b576101008083540402835291602001916112c6565b820191906000526020600020905b8154815290600101906020018083116112a957829003601f168201915b5050505050905090565b600981815481106112e057600080fd5b906000526020600020016000915054906101000a900473ffffffffffffffffffffffffffffffffffffffff1681565b61132161131a611929565b8383611e37565b5050565b6060600b60003373ffffffffffffffffffffffffffffffffffffffff1673ffffffffffffffffffffffffffffffffffffffff1681526020019081526020016000206002018054806020026020016040519081016040528092919081815260200182805480156113b357602002820191906000526020600020905b81548152602001906001019080831161139f575b5050505050905090565b6000600c60009054906101000a900473ffffffffffffffffffffffffffffffffffffffff1673ffffffffffffffffffffffffffffffffffffffff163373ffffffffffffffffffffffffffffffffffffffff16141561141e5760019050611423565b600090505b90565b611437611431611929565b836119ea565b611476576040517f08c379a000000000000000000000000000000000000000000000000000000000815260040161146d9061316f565b60405180910390fd5b61148284848484611fa4565b50505050565b600b60008373ffffffffffffffffffffffffffffffffffffffff1673ffffffffffffffffffffffffffffffffffffffff1681526020019081526020016000206002018190806001815401808255809150506001900390600052602060002001600090919091909150557f5d1346b6d89ee993d36c689e1ec642d2e6bc07ea2dfffded0fff0e5109abd6758282604051611522929190612ec5565b60405180910390a15050565b6008818154811061153e57600080fd5b906000526020600020016000915090505481565b6060600073ffffffffffffffffffffffffffffffffffffffff16611575836109b7565b73ffffffffffffffffffffffffffffffffffffffff1614156115cc576040517f08c379a00000000000000000000000000000000000000000000000000000000081526004016115c3906130ef565b60405180910390fd5b6000600a600084815260200190815260200160002080546115ec906134b1565b80601f0160208091040260200160405190810160405280929190818152602001828054611618906134b1565b80156116655780601f1061163a57610100808354040283529160200191611665565b820191906000526020600020905b81548152906001019060200180831161164857829003601f168201915b5050505050905060008160405160200161167f9190612e25565b6040516020818303038152906040529050600061169b82612000565b9050806040516020016116ae9190612e3c565b6040516020818303038152906040529350505050919050565b6000600560008473ffffffffffffffffffffffffffffffffffffffff1673ffffffffffffffffffffffffffffffffffffffff16815260200190815260200160002060008373ffffffffffffffffffffffffffffffffffffffff1673ffffffffffffffffffffffffffffffffffffffff16815260200190815260200160002060009054906101000a900460ff16905092915050565b611763611929565b73ffffffffffffffffffffffffffffffffffffffff16611781611085565b73ffffffffffffffffffffffffffffffffffffffff16146117d7576040517f08c379a00000000000000000000000000000000000000000000000000000000081526004016117ce9061312f565b60405180910390fd5b600073ffffffffffffffffffffffffffffffffffffffff168173ffffffffffffffffffffffffffffffffffffffff161415611847576040517f08c379a000000000000000000000000000000000000000000000000000000000815260040161183e90612faf565b60405180910390fd5b61185081611d2f565b50565b60007f01ffc9a7000000000000000000000000000000000000000000000000000000007bffffffffffffffffffffffffffffffffffffffffffffffffffffffff1916827bffffffffffffffffffffffffffffffffffffffffffffffffffffffff1916149050919050565b60008073ffffffffffffffffffffffffffffffffffffffff166002600084815260200190815260200160002060009054906101000a900473ffffffffffffffffffffffffffffffffffffffff1673ffffffffffffffffffffffffffffffffffffffff1614159050919050565b600033905090565b816004600083815260200190815260200160002060006101000a81548173ffffffffffffffffffffffffffffffffffffffff021916908373ffffffffffffffffffffffffffffffffffffffff160217905550808273ffffffffffffffffffffffffffffffffffffffff166119a4836109b7565b73ffffffffffffffffffffffffffffffffffffffff167f8c5be1e5ebec7d5bd14f71427d1e84f3dd0314c0f7b2291e5b200ac8c7c3b92560405160405180910390a45050565b60006119f5826118bd565b611a34576040517f08c379a0000000000000000000000000000000000000000000000000000000008152600401611a2b9061304f565b60405180910390fd5b6000611a3f836109b7565b90508073ffffffffffffffffffffffffffffffffffffffff168473ffffffffffffffffffffffffffffffffffffffff161480611aae57508373ffffffffffffffffffffffffffffffffffffffff16611a9684610702565b73ffffffffffffffffffffffffffffffffffffffff16145b80611abf5750611abe81856116c7565b5b91505092915050565b8273ffffffffffffffffffffffffffffffffffffffff16611ae8826109b7565b73ffffffffffffffffffffffffffffffffffffffff1614611b3e576040517f08c379a0000000000000000000000000000000000000000000000000000000008152600401611b3590612fcf565b60405180910390fd5b600073ffffffffffffffffffffffffffffffffffffffff168273ffffffffffffffffffffffffffffffffffffffff161415611bae576040517f08c379a0000000000000000000000000000000000000000000000000000000008152600401611ba59061300f565b60405180910390fd5b611bb983838361218a565b611bc4600082611931565b6001600360008573ffffffffffffffffffffffffffffffffffffffff1673ffffffffffffffffffffffffffffffffffffffff1681526020019081526020016000206000828254611c1491906133c7565b925050819055506001600360008473ffffffffffffffffffffffffffffffffffffffff1673ffffffffffffffffffffffffffffffffffffffff1681526020019081526020016000206000828254611c6b91906132e6565b92505081905550816002600083815260200190815260200160002060006101000a81548173ffffffffffffffffffffffffffffffffffffffff021916908373ffffffffffffffffffffffffffffffffffffffff160217905550808273ffffffffffffffffffffffffffffffffffffffff168473ffffffffffffffffffffffffffffffffffffffff167fddf252ad1be2c89b69c2b068fc378daa952ba7f163c4a11628f55a4df523b3ef60405160405180910390a4611d2a83838361218f565b505050565b6000600660009054906101000a900473ffffffffffffffffffffffffffffffffffffffff16905081600660006101000a81548173ffffffffffffffffffffffffffffffffffffffff021916908373ffffffffffffffffffffffffffffffffffffffff1602179055508173ffffffffffffffffffffffffffffffffffffffff168173ffffffffffffffffffffffffffffffffffffffff167f8be0079c531659141344cd1fd0a4f28419497f9722a3daafe3b4186f6b6457e060405160405180910390a35050565b6001816000016000828254019250508190555050565b600081600001549050919050565b611e33828260405180602001604052806000815250612194565b5050565b8173ffffffffffffffffffffffffffffffffffffffff168373ffffffffffffffffffffffffffffffffffffffff161415611ea6576040517f08c379a0000000000000000000000000000000000000000000000000000000008152600401611e9d9061302f565b60405180910390fd5b80600560008573ffffffffffffffffffffffffffffffffffffffff1673ffffffffffffffffffffffffffffffffffffffff16815260200190815260200160002060008473ffffffffffffffffffffffffffffffffffffffff1673ffffffffffffffffffffffffffffffffffffffff16815260200190815260200160002060006101000a81548160ff0219169083151502179055508173ffffffffffffffffffffffffffffffffffffffff168373ffffffffffffffffffffffffffffffffffffffff167f17307eab39ab6107e8899845ad3d59bd9653f200f220920489ca2b5937696c3183604051611f979190612f32565b60405180910390a3505050565b611faf848484611ac8565b611fbb848484846121ef565b611ffa576040517f08c379a0000000000000000000000000000000000000000000000000000000008152600401611ff190612f8f565b60405180910390fd5b50505050565b606060008251141561202357604051806020016040528060008152509050612185565b6000604051806060016040528060408152602001613b0b604091399050600060036002855161205291906132e6565b61205c919061333c565b6004612068919061336d565b67ffffffffffffffff8111156120a7577f4e487b7100000000000000000000000000000000000000000000000000000000600052604160045260246000fd5b6040519080825280601f01601f1916602001820160405280156120d95781602001600182028036833780820191505090505b509050600182016020820185865187015b80821015612145576003820191508151603f8160121c168501518453600184019350603f81600c1c168501518453600184019350603f8160061c168501518453600184019350603f81168501518453600184019350506120ea565b505060038651066001811461216157600281146121745761217c565b603d6001830353603d600283035361217c565b603d60018303535b50505080925050505b919050565b505050565b505050565b61219e8383612386565b6121ab60008484846121ef565b6121ea576040517f08c379a00000000000000000000000000000000000000000000000000000000081526004016121e190612f8f565b60405180910390fd5b505050565b60006122108473ffffffffffffffffffffffffffffffffffffffff16612560565b15612379578373ffffffffffffffffffffffffffffffffffffffff1663150b7a02612239611929565b8786866040518563ffffffff1660e01b815260040161225b9493929190612e79565b602060405180830381600087803b15801561227557600080fd5b505af19250505080156122a657506040513d601f19601f820116820180604052508101906122a3919061292f565b60015b612329573d80600081146122d6576040519150601f19603f3d011682016040523d82523d6000602084013e6122db565b606091505b50600081511415612321576040517f08c379a000000000000000000000000000000000000000000000000000000000815260040161231890612f8f565b60405180910390fd5b805181602001fd5b63150b7a0260e01b7bffffffffffffffffffffffffffffffffffffffffffffffffffffffff1916817bffffffffffffffffffffffffffffffffffffffffffffffffffffffff19161491505061237e565b600190505b949350505050565b600073ffffffffffffffffffffffffffffffffffffffff168273ffffffffffffffffffffffffffffffffffffffff1614156123f6576040517f08c379a00000000000000000000000000000000000000000000000000000000081526004016123ed906130cf565b60405180910390fd5b6123ff816118bd565b1561243f576040517f08c379a000000000000000000000000000000000000000000000000000000000815260040161243690612fef565b60405180910390fd5b61244b6000838361218a565b6001600360008473ffffffffffffffffffffffffffffffffffffffff1673ffffffffffffffffffffffffffffffffffffffff168152602001908152602001600020600082825461249b91906132e6565b92505081905550816002600083815260200190815260200160002060006101000a81548173ffffffffffffffffffffffffffffffffffffffff021916908373ffffffffffffffffffffffffffffffffffffffff160217905550808273ffffffffffffffffffffffffffffffffffffffff16600073ffffffffffffffffffffffffffffffffffffffff167fddf252ad1be2c89b69c2b068fc378daa952ba7f163c4a11628f55a4df523b3ef60405160405180910390a461255c6000838361218f565b5050565b6000808273ffffffffffffffffffffffffffffffffffffffff163b119050919050565b82805461258f906134b1565b90600052602060002090601f0160209004810192826125b157600085556125f8565b82601f106125ca57805160ff19168380011785556125f8565b828001600101855582156125f8579182015b828111156125f75782518255916020019190600101906125dc565b5b5090506126059190612609565b5090565b5b8082111561262257600081600090555060010161260a565b5090565b6000612639612634846131cf565b6131aa565b90508281526020810184848401111561265157600080fd5b61265c84828561346f565b509392505050565b600061267761267284613200565b6131aa565b90508281526020810184848401111561268f57600080fd5b61269a84828561346f565b509392505050565b6000813590506126b181613aae565b92915050565b6000813590506126c681613ac5565b92915050565b6000813590506126db81613adc565b92915050565b6000815190506126f081613adc565b92915050565b600082601f83011261270757600080fd5b8135612717848260208601612626565b91505092915050565b600082601f83011261273157600080fd5b8135612741848260208601612664565b91505092915050565b60008135905061275981613af3565b92915050565b60006020828403121561277157600080fd5b600061277f848285016126a2565b91505092915050565b6000806040838503121561279b57600080fd5b60006127a9858286016126a2565b92505060206127ba858286016126a2565b9150509250929050565b6000806000606084860312156127d957600080fd5b60006127e7868287016126a2565b93505060206127f8868287016126a2565b92505060406128098682870161274a565b9150509250925092565b6000806000806080858703121561282957600080fd5b6000612837878288016126a2565b9450506020612848878288016126a2565b93505060406128598782880161274a565b925050606085013567ffffffffffffffff81111561287657600080fd5b612882878288016126f6565b91505092959194509250565b600080604083850312156128a157600080fd5b60006128af858286016126a2565b92505060206128c0858286016126b7565b9150509250929050565b600080604083850312156128dd57600080fd5b60006128eb858286016126a2565b92505060206128fc8582860161274a565b9150509250929050565b60006020828403121561291857600080fd5b6000612926848285016126cc565b91505092915050565b60006020828403121561294157600080fd5b600061294f848285016126e1565b91505092915050565b6000806040838503121561296b57600080fd5b600083013567ffffffffffffffff81111561298557600080fd5b61299185828601612720565b92505060206129a2858286016126b7565b9150509250929050565b6000602082840312156129be57600080fd5b60006129cc8482850161274a565b91505092915050565b60006129e18383612a05565b60208301905092915050565b60006129f98383612e07565b60208301905092915050565b612a0e816133fb565b82525050565b612a1d816133fb565b82525050565b6000612a2e82613251565b612a388185613297565b9350612a4383613231565b8060005b83811015612a74578151612a5b88826129d5565b9750612a668361327d565b925050600181019050612a47565b5085935050505092915050565b6000612a8c8261325c565b612a9681856132a8565b9350612aa183613241565b8060005b83811015612ad2578151612ab988826129ed565b9750612ac48361328a565b925050600181019050612aa5565b5085935050505092915050565b612ae88161340d565b82525050565b6000612af982613267565b612b0381856132b9565b9350612b1381856020860161347e565b612b1c81613619565b840191505092915050565b6000612b3282613272565b612b3c81856132ca565b9350612b4c81856020860161347e565b612b5581613619565b840191505092915050565b6000612b6b82613272565b612b7581856132db565b9350612b8581856020860161347e565b80840191505092915050565b6000612b9e600c836132ca565b9150612ba98261362a565b602082019050919050565b6000612bc16032836132ca565b9150612bcc82613653565b604082019050919050565b6000612be46026836132ca565b9150612bef826136a2565b604082019050919050565b6000612c076025836132ca565b9150612c12826136f1565b604082019050919050565b6000612c2a601c836132ca565b9150612c3582613740565b602082019050919050565b6000612c4d6024836132ca565b9150612c5882613769565b604082019050919050565b6000612c706019836132ca565b9150612c7b826137b8565b602082019050919050565b6000612c93602c836132ca565b9150612c9e826137e1565b604082019050919050565b6000612cb66038836132ca565b9150612cc182613830565b604082019050919050565b6000612cd9602a836132ca565b9150612ce48261387f565b604082019050919050565b6000612cfc6029836132ca565b9150612d07826138ce565b604082019050919050565b6000612d1f6020836132ca565b9150612d2a8261391d565b602082019050919050565b6000612d426015836132ca565b9150612d4d82613946565b602082019050919050565b6000612d65602c836132ca565b9150612d708261396f565b604082019050919050565b6000612d886020836132ca565b9150612d93826139be565b602082019050919050565b6000612dab6021836132ca565b9150612db6826139e7565b604082019050919050565b6000612dce601d836132db565b9150612dd982613a36565b601d82019050919050565b6000612df16031836132ca565b9150612dfc82613a5f565b604082019050919050565b612e1081613465565b82525050565b612e1f81613465565b82525050565b6000612e318284612b60565b915081905092915050565b6000612e4782612dc1565b9150612e538284612b60565b915081905092915050565b6000602082019050612e736000830184612a14565b92915050565b6000608082019050612e8e6000830187612a14565b612e9b6020830186612a14565b612ea86040830185612e16565b8181036060830152612eba8184612aee565b905095945050505050565b6000604082019050612eda6000830185612a14565b612ee76020830184612e16565b9392505050565b60006020820190508181036000830152612f088184612a23565b905092915050565b60006020820190508181036000830152612f2a8184612a81565b905092915050565b6000602082019050612f476000830184612adf565b92915050565b60006020820190508181036000830152612f678184612b27565b905092915050565b60006020820190508181036000830152612f8881612b91565b9050919050565b60006020820190508181036000830152612fa881612bb4565b9050919050565b60006020820190508181036000830152612fc881612bd7565b9050919050565b60006020820190508181036000830152612fe881612bfa565b9050919050565b6000602082019050818103600083015261300881612c1d565b9050919050565b6000602082019050818103600083015261302881612c40565b9050919050565b6000602082019050818103600083015261304881612c63565b9050919050565b6000602082019050818103600083015261306881612c86565b9050919050565b6000602082019050818103600083015261308881612ca9565b9050919050565b600060208201905081810360008301526130a881612ccc565b9050919050565b600060208201905081810360008301526130c881612cef565b9050919050565b600060208201905081810360008301526130e881612d12565b9050919050565b6000602082019050818103600083015261310881612d35565b9050919050565b6000602082019050818103600083015261312881612d58565b9050919050565b6000602082019050818103600083015261314881612d7b565b9050919050565b6000602082019050818103600083015261316881612d9e565b9050919050565b6000602082019050818103600083015261318881612de4565b9050919050565b60006020820190506131a46000830184612e16565b92915050565b60006131b46131c5565b90506131c082826134e3565b919050565b6000604051905090565b600067ffffffffffffffff8211156131ea576131e96135ea565b5b6131f382613619565b9050602081019050919050565b600067ffffffffffffffff82111561321b5761321a6135ea565b5b61322482613619565b9050602081019050919050565b6000819050602082019050919050565b6000819050602082019050919050565b600081519050919050565b600081519050919050565b600081519050919050565b600081519050919050565b6000602082019050919050565b6000602082019050919050565b600082825260208201905092915050565b600082825260208201905092915050565b600082825260208201905092915050565b600082825260208201905092915050565b600081905092915050565b60006132f182613465565b91506132fc83613465565b9250827fffffffffffffffffffffffffffffffffffffffffffffffffffffffffffffffff038211156133315761333061355d565b5b828201905092915050565b600061334782613465565b915061335283613465565b9250826133625761336161358c565b5b828204905092915050565b600061337882613465565b915061338383613465565b9250817fffffffffffffffffffffffffffffffffffffffffffffffffffffffffffffffff04831182151516156133bc576133bb61355d565b5b828202905092915050565b60006133d282613465565b91506133dd83613465565b9250828210156133f0576133ef61355d565b5b828203905092915050565b600061340682613445565b9050919050565b60008115159050919050565b60007fffffffff0000000000000000000000000000000000000000000000000000000082169050919050565b600073ffffffffffffffffffffffffffffffffffffffff82169050919050565b6000819050919050565b82818337600083830152505050565b60005b8381101561349c578082015181840152602081019050613481565b838111156134ab576000848401525b50505050565b600060028204905060018216806134c957607f821691505b602082108114156134dd576134dc6135bb565b5b50919050565b6134ec82613619565b810181811067ffffffffffffffff8211171561350b5761350a6135ea565b5b80604052505050565b600061351f82613465565b91507fffffffffffffffffffffffffffffffffffffffffffffffffffffffffffffffff8214156135525761355161355d565b5b600182019050919050565b7f4e487b7100000000000000000000000000000000000000000000000000000000600052601160045260246000fd5b7f4e487b7100000000000000000000000000000000000000000000000000000000600052601260045260246000fd5b7f4e487b7100000000000000000000000000000000000000000000000000000000600052602260045260246000fd5b7f4e487b7100000000000000000000000000000000000000000000000000000000600052604160045260246000fd5b6000601f19601f8301169050919050565b7f6f7574206f6620626f756e640000000000000000000000000000000000000000600082015250565b7f4552433732313a207472616e7366657220746f206e6f6e20455243373231526560008201527f63656976657220696d706c656d656e7465720000000000000000000000000000602082015250565b7f4f776e61626c653a206e6577206f776e657220697320746865207a65726f206160008201527f6464726573730000000000000000000000000000000000000000000000000000602082015250565b7f4552433732313a207472616e736665722066726f6d20696e636f72726563742060008201527f6f776e6572000000000000000000000000000000000000000000000000000000602082015250565b7f4552433732313a20746f6b656e20616c7265616479206d696e74656400000000600082015250565b7f4552433732313a207472616e7366657220746f20746865207a65726f2061646460008201527f7265737300000000000000000000000000000000000000000000000000000000602082015250565b7f4552433732313a20617070726f766520746f2063616c6c657200000000000000600082015250565b7f4552433732313a206f70657261746f7220717565727920666f72206e6f6e657860008201527f697374656e7420746f6b656e0000000000000000000000000000000000000000602082015250565b7f4552433732313a20617070726f76652063616c6c6572206973206e6f74206f7760008201527f6e6572206e6f7220617070726f76656420666f7220616c6c0000000000000000602082015250565b7f4552433732313a2062616c616e636520717565727920666f7220746865207a6560008201527f726f206164647265737300000000000000000000000000000000000000000000602082015250565b7f4552433732313a206f776e657220717565727920666f72206e6f6e657869737460008201527f656e7420746f6b656e0000000000000000000000000000000000000000000000602082015250565b7f4552433732313a206d696e7420746f20746865207a65726f2061646472657373600082015250565b7f546f6b656e20646f6573206e6f742065786973742e0000000000000000000000600082015250565b7f4552433732313a20617070726f76656420717565727920666f72206e6f6e657860008201527f697374656e7420746f6b656e0000000000000000000000000000000000000000602082015250565b7f4f776e61626c653a2063616c6c6572206973206e6f7420746865206f776e6572600082015250565b7f4552433732313a20617070726f76616c20746f2063757272656e74206f776e6560008201527f7200000000000000000000000000000000000000000000000000000000000000602082015250565b7f646174613a6170706c69636174696f6e2f6a736f6e3b6261736536342c000000600082015250565b7f4552433732313a207472616e736665722063616c6c6572206973206e6f74206f60008201527f776e6572206e6f7220617070726f766564000000000000000000000000000000602082015250565b613ab7816133fb565b8114613ac257600080fd5b50565b613ace8161340d565b8114613ad957600080fd5b50565b613ae581613419565b8114613af057600080fd5b50565b613afc81613465565b8114613b0757600080fd5b5056fe4142434445464748494a4b4c4d4e4f505152535455565758595a6162636465666768696a6b6c6d6e6f707172737475767778797a303132333435363738392b2fa2646970667358221220718559e99659febd471a5b4083bfdc49f650b4d8d6dd969b4737d44f7be8989a64736f6c63430008040033",
  "linkReferences": {},
  "deployedLinkReferences": {}
}