{
  "_format": "hh-sol-artifact-1",
  "contractName": "Upbox",
  "sourceName": "contracts/Upbox.sol",
  "abi": [
    {
      "inputs": [],
      "stateMutability": "nonpayable",
      "type": "constructor"
    },
    {
      "anonymous": false,
      "inputs": [
        {
          "indexed": true,
          "internalType": "address",
          "name": "owner",
          "type": "address"
        },
        {
          "indexed": true,
          "internalType": "address",
          "name": "approved",
          "type": "address"
        },
        {
          "indexed": true,
          "internalType": "uint256",
          "name": "tokenId",
          "type": "uint256"
        }
      ],
      "name": "Approval",
      "type": "event"
    },
    {
      "anonymous": false,
      "inputs": [
        {
          "indexed": true,
          "internalType": "address",
          "name": "owner",
          "type": "address"
        },
        {
          "indexed": true,
          "internalType": "address",
          "name": "operator",
          "type": "address"
        },
        {
          "indexed": false,
          "internalType": "bool",
          "name": "approved",
          "type": "bool"
        }
      ],
      "name": "ApprovalForAll",
      "type": "event"
    },
    {
      "anonymous": false,
      "inputs": [
        {
          "indexed": true,
          "internalType": "address",
          "name": "previousOwner",
          "type": "address"
        },
        {
          "indexed": true,
          "internalType": "address",
          "name": "newOwner",
          "type": "address"
        }
      ],
      "name": "OwnershipTransferred",
      "type": "event"
    },
    {
      "anonymous": false,
      "inputs": [
        {
          "indexed": true,
          "internalType": "address",
          "name": "from",
          "type": "address"
        },
        {
          "indexed": true,
          "internalType": "address",
          "name": "to",
          "type": "address"
        },
        {
          "indexed": true,
          "internalType": "uint256",
          "name": "tokenId",
          "type": "uint256"
        }
      ],
      "name": "Transfer",
      "type": "event"
    },
    {
      "inputs": [
        {
          "internalType": "address",
          "name": "to",
          "type": "address"
        },
        {
          "internalType": "uint256",
          "name": "tokenId",
          "type": "uint256"
        }
      ],
      "name": "approve",
      "outputs": [],
      "stateMutability": "nonpayable",
      "type": "function"
    },
    {
      "inputs": [
        {
          "internalType": "address",
          "name": "owner",
          "type": "address"
        }
      ],
      "name": "balanceOf",
      "outputs": [
        {
          "internalType": "uint256",
          "name": "",
          "type": "uint256"
        }
      ],
      "stateMutability": "view",
      "type": "function"
    },
    {
      "inputs": [],
      "name": "getAllPublicTokens",
      "outputs": [
        {
          "internalType": "uint256[]",
          "name": "",
          "type": "uint256[]"
        }
      ],
      "stateMutability": "view",
      "type": "function"
    },
    {
      "inputs": [
        {
          "internalType": "uint256",
          "name": "tokenId",
          "type": "uint256"
        }
      ],
      "name": "getApproved",
      "outputs": [
        {
          "internalType": "address",
          "name": "",
          "type": "address"
        }
      ],
      "stateMutability": "view",
      "type": "function"
    },
    {
      "inputs": [],
      "name": "getMyPrivateTokens",
      "outputs": [
        {
          "internalType": "uint256[]",
          "name": "",
          "type": "uint256[]"
        }
      ],
      "stateMutability": "view",
      "type": "function"
    },
    {
      "inputs": [],
      "name": "getMyPublicTokens",
      "outputs": [
        {
          "internalType": "uint256[]",
          "name": "",
          "type": "uint256[]"
        }
      ],
      "stateMutability": "view",
      "type": "function"
    },
    {
      "inputs": [],
      "name": "getMyRecievedTokens",
      "outputs": [
        {
          "internalType": "uint256[]",
          "name": "",
          "type": "uint256[]"
        }
      ],
      "stateMutability": "view",
      "type": "function"
    },
    {
      "inputs": [
        {
          "internalType": "address",
          "name": "owner",
          "type": "address"
        },
        {
          "internalType": "address",
          "name": "operator",
          "type": "address"
        }
      ],
      "name": "isApprovedForAll",
      "outputs": [
        {
          "internalType": "bool",
          "name": "",
          "type": "bool"
        }
      ],
      "stateMutability": "view",
      "type": "function"
    },
    {
      "inputs": [],
      "name": "name",
      "outputs": [
        {
          "internalType": "string",
          "name": "",
          "type": "string"
        }
      ],
      "stateMutability": "view",
      "type": "function"
    },
    {
      "inputs": [],
      "name": "owner",
      "outputs": [
        {
          "internalType": "address",
          "name": "",
          "type": "address"
        }
      ],
      "stateMutability": "view",
      "type": "function"
    },
    {
      "inputs": [
        {
          "internalType": "uint256",
          "name": "tokenId",
          "type": "uint256"
        }
      ],
      "name": "ownerOf",
      "outputs": [
        {
          "internalType": "address",
          "name": "",
          "type": "address"
        }
      ],
      "stateMutability": "view",
      "type": "function"
    },
    {
      "inputs": [
        {
          "internalType": "uint256",
          "name": "",
          "type": "uint256"
        }
      ],
      "name": "publicTokensIds",
      "outputs": [
        {
          "internalType": "uint256",
          "name": "",
          "type": "uint256"
        }
      ],
      "stateMutability": "view",
      "type": "function"
    },
    {
      "inputs": [],
      "name": "renounceOwnership",
      "outputs": [],
      "stateMutability": "nonpayable",
      "type": "function"
    },
    {
      "inputs": [
        {
          "internalType": "address",
          "name": "from",
          "type": "address"
        },
        {
          "internalType": "address",
          "name": "to",
          "type": "address"
        },
        {
          "internalType": "uint256",
          "name": "tokenId",
          "type": "uint256"
        }
      ],
      "name": "safeTransferFrom",
      "outputs": [],
      "stateMutability": "nonpayable",
      "type": "function"
    },
    {
      "inputs": [
        {
          "internalType": "address",
          "name": "from",
          "type": "address"
        },
        {
          "internalType": "address",
          "name": "to",
          "type": "address"
        },
        {
          "internalType": "uint256",
          "name": "tokenId",
          "type": "uint256"
        },
        {
          "internalType": "bytes",
          "name": "_data",
          "type": "bytes"
        }
      ],
      "name": "safeTransferFrom",
      "outputs": [],
      "stateMutability": "nonpayable",
      "type": "function"
    },
    {
      "inputs": [
        {
          "internalType": "address",
          "name": "operator",
          "type": "address"
        },
        {
          "internalType": "bool",
          "name": "approved",
          "type": "bool"
        }
      ],
      "name": "setApprovalForAll",
      "outputs": [],
      "stateMutability": "nonpayable",
      "type": "function"
    },
    {
      "inputs": [
        {
          "internalType": "address",
          "name": "to",
          "type": "address"
        },
        {
          "internalType": "uint256",
          "name": "tokenId",
          "type": "uint256"
        }
      ],
      "name": "shareToken",
      "outputs": [],
      "stateMutability": "nonpayable",
      "type": "function"
    },
    {
      "inputs": [
        {
          "internalType": "bytes4",
          "name": "interfaceId",
          "type": "bytes4"
        }
      ],
      "name": "supportsInterface",
      "outputs": [
        {
          "internalType": "bool",
          "name": "",
          "type": "bool"
        }
      ],
      "stateMutability": "view",
      "type": "function"
    },
    {
      "inputs": [],
      "name": "symbol",
      "outputs": [
        {
          "internalType": "string",
          "name": "",
          "type": "string"
        }
      ],
      "stateMutability": "view",
      "type": "function"
    },
    {
      "inputs": [
        {
          "internalType": "uint256",
          "name": "tokenId",
          "type": "uint256"
        }
      ],
      "name": "tokenURI",
      "outputs": [
        {
          "internalType": "string",
          "name": "",
          "type": "string"
        }
      ],
      "stateMutability": "view",
      "type": "function"
    },
    {
      "inputs": [
        {
          "internalType": "address",
          "name": "from",
          "type": "address"
        },
        {
          "internalType": "address",
          "name": "to",
          "type": "address"
        },
        {
          "internalType": "uint256",
          "name": "tokenId",
          "type": "uint256"
        }
      ],
      "name": "transferFrom",
      "outputs": [],
      "stateMutability": "nonpayable",
      "type": "function"
    },
    {
      "inputs": [
        {
          "internalType": "address",
          "name": "newOwner",
          "type": "address"
        }
      ],
      "name": "transferOwnership",
      "outputs": [],
      "stateMutability": "nonpayable",
      "type": "function"
    },
    {
      "inputs": [
        {
          "internalType": "string",
          "name": "input",
          "type": "string"
        },
        {
          "internalType": "bool",
          "name": "_isPrivate",
          "type": "bool"
        }
      ],
      "name": "uploadFile",
      "outputs": [],
      "stateMutability": "nonpayable",
      "type": "function"
    }
  ],
  "bytecode": "0x60806040523480156200001157600080fd5b506040518060400160405280600581526020017f5570626f780000000000000000000000000000000000000000000000000000008152506040518060400160405280600381526020017f5542580000000000000000000000000000000000000000000000000000000000815250816000908051906020019062000096929190620001a6565b508060019080519060200190620000af929190620001a6565b505050620000d2620000c6620000d860201b60201c565b620000e060201b60201c565b620002bb565b600033905090565b6000600660009054906101000a900473ffffffffffffffffffffffffffffffffffffffff16905081600660006101000a81548173ffffffffffffffffffffffffffffffffffffffff021916908373ffffffffffffffffffffffffffffffffffffffff1602179055508173ffffffffffffffffffffffffffffffffffffffff168173ffffffffffffffffffffffffffffffffffffffff167f8be0079c531659141344cd1fd0a4f28419497f9722a3daafe3b4186f6b6457e060405160405180910390a35050565b828054620001b49062000256565b90600052602060002090601f016020900481019282620001d8576000855562000224565b82601f10620001f357805160ff191683800117855562000224565b8280016001018555821562000224579182015b828111156200022357825182559160200191906001019062000206565b5b50905062000233919062000237565b5090565b5b808211156200025257600081600090555060010162000238565b5090565b600060028204905060018216806200026f57607f821691505b602082108114156200028657620002856200028c565b5b50919050565b7f4e487b7100000000000000000000000000000000000000000000000000000000600052602260045260246000fd5b61346e80620002cb6000396000f3fe608060405234801561001057600080fd5b506004361061014d5760003560e01c806383b54dff116100c3578063b88d4fde1161007c578063b88d4fde1461037a578063c181f58014610396578063c4f66ed1146103b2578063c87b56dd146103e2578063e985e9c514610412578063f2fde38b146104425761014d565b806383b54dff146102ca5780638da5cb5b146102e857806391b68f221461030657806395d89b4114610322578063a22cb46514610340578063a5e6ca9a1461035c5761014d565b80633891fa64116101155780633891fa641461020857806342842e0e146102265780636352211e1461024257806370a082311461027257806370c0d745146102a2578063715018a6146102c05761014d565b806301ffc9a71461015257806306fdde0314610182578063081812fc146101a0578063095ea7b3146101d057806323b872dd146101ec575b600080fd5b61016c60048036038101906101679190612346565b61045e565b60405161017991906128a2565b60405180910390f35b61018a610540565b60405161019791906128bd565b60405180910390f35b6101ba60048036038101906101b591906123ec565b6105d2565b6040516101c79190612819565b60405180910390f35b6101ea60048036038101906101e5919061230a565b610657565b005b61020660048036038101906102019190612204565b61076f565b005b6102106107cf565b60405161021d9190612880565b60405180910390f35b610240600480360381019061023b9190612204565b610867565b005b61025c600480360381019061025791906123ec565b610887565b6040516102699190612819565b60405180910390f35b61028c6004803603810190610287919061219f565b610939565b6040516102999190612aff565b60405180910390f35b6102aa6109f1565b6040516102b79190612880565b60405180910390f35b6102c8610a89565b005b6102d2610b11565b6040516102df9190612880565b60405180910390f35b6102f0610b69565b6040516102fd9190612819565b60405180910390f35b610320600480360381019061031b9190612398565b610b93565b005b61032a610ce9565b60405161033791906128bd565b60405180910390f35b61035a600480360381019061035591906122ce565b610d7b565b005b610364610d91565b6040516103719190612880565b60405180910390f35b610394600480360381019061038f9190612253565b610e29565b005b6103b060048036038101906103ab919061230a565b610e8b565b005b6103cc60048036038101906103c791906123ec565b610f6e565b6040516103d99190612aff565b60405180910390f35b6103fc60048036038101906103f791906123ec565b610f92565b60405161040991906128bd565b60405180910390f35b61042c600480360381019061042791906121c8565b611107565b60405161043991906128a2565b60405180910390f35b61045c6004803603810190610457919061219f565b61119b565b005b60007f80ac58cd000000000000000000000000000000000000000000000000000000007bffffffffffffffffffffffffffffffffffffffffffffffffffffffff1916827bffffffffffffffffffffffffffffffffffffffffffffffffffffffff1916148061052957507f5b5e139f000000000000000000000000000000000000000000000000000000007bffffffffffffffffffffffffffffffffffffffffffffffffffffffff1916827bffffffffffffffffffffffffffffffffffffffffffffffffffffffff1916145b80610539575061053882611293565b5b9050919050565b60606000805461054f90612de8565b80601f016020809104026020016040519081016040528092919081815260200182805461057b90612de8565b80156105c85780601f1061059d576101008083540402835291602001916105c8565b820191906000526020600020905b8154815290600101906020018083116105ab57829003601f168201915b5050505050905090565b60006105dd826112fd565b61061c576040517f08c379a000000000000000000000000000000000000000000000000000000000815260040161061390612a5f565b60405180910390fd5b6004600083815260200190815260200160002060009054906101000a900473ffffffffffffffffffffffffffffffffffffffff169050919050565b600061066282610887565b90508073ffffffffffffffffffffffffffffffffffffffff168373ffffffffffffffffffffffffffffffffffffffff1614156106d3576040517f08c379a00000000000000000000000000000000000000000000000000000000081526004016106ca90612abf565b60405180910390fd5b8073ffffffffffffffffffffffffffffffffffffffff166106f2611369565b73ffffffffffffffffffffffffffffffffffffffff16148061072157506107208161071b611369565b611107565b5b610760576040517f08c379a0000000000000000000000000000000000000000000000000000000008152600401610757906129bf565b60405180910390fd5b61076a8383611371565b505050565b61078061077a611369565b8261142a565b6107bf576040517f08c379a00000000000000000000000000000000000000000000000000000000081526004016107b690612adf565b60405180910390fd5b6107ca838383611508565b505050565b6060600a60003373ffffffffffffffffffffffffffffffffffffffff1673ffffffffffffffffffffffffffffffffffffffff16815260200190815260200160002060010180548060200260200160405190810160405280929190818152602001828054801561085d57602002820191906000526020600020905b815481526020019060010190808311610849575b5050505050905090565b61088283838360405180602001604052806000815250610e29565b505050565b6000806002600084815260200190815260200160002060009054906101000a900473ffffffffffffffffffffffffffffffffffffffff169050600073ffffffffffffffffffffffffffffffffffffffff168173ffffffffffffffffffffffffffffffffffffffff161415610930576040517f08c379a0000000000000000000000000000000000000000000000000000000008152600401610927906129ff565b60405180910390fd5b80915050919050565b60008073ffffffffffffffffffffffffffffffffffffffff168273ffffffffffffffffffffffffffffffffffffffff1614156109aa576040517f08c379a00000000000000000000000000000000000000000000000000000000081526004016109a1906129df565b60405180910390fd5b600360008373ffffffffffffffffffffffffffffffffffffffff1673ffffffffffffffffffffffffffffffffffffffff168152602001908152602001600020549050919050565b6060600a60003373ffffffffffffffffffffffffffffffffffffffff1673ffffffffffffffffffffffffffffffffffffffff168152602001908152602001600020600001805480602002602001604051908101604052809291908181526020018280548015610a7f57602002820191906000526020600020905b815481526020019060010190808311610a6b575b5050505050905090565b610a91611369565b73ffffffffffffffffffffffffffffffffffffffff16610aaf610b69565b73ffffffffffffffffffffffffffffffffffffffff1614610b05576040517f08c379a0000000000000000000000000000000000000000000000000000000008152600401610afc90612a7f565b60405180910390fd5b610b0f600061176f565b565b60606009805480602002602001604051908101604052809291908181526020018280548015610b5f57602002820191906000526020600020905b815481526020019060010190808311610b4b575b5050505050905090565b6000600660009054906101000a900473ffffffffffffffffffffffffffffffffffffffff16905090565b610b9d6007611835565b6000610ba9600761184b565b905082600860008381526020019081526020016000209080519060200190610bd2929190611fc3565b50610bdd3382611859565b8115610c5157600a60003373ffffffffffffffffffffffffffffffffffffffff1673ffffffffffffffffffffffffffffffffffffffff168152602001908152602001600020600101819080600181540180825580915050600190039060005260206000200160009091909190915055610ce4565b600a60003373ffffffffffffffffffffffffffffffffffffffff1673ffffffffffffffffffffffffffffffffffffffff16815260200190815260200160002060000181908060018154018082558091505060019003906000526020600020016000909190919091505560098190806001815401808255809150506001900390600052602060002001600090919091909150555b505050565b606060018054610cf890612de8565b80601f0160208091040260200160405190810160405280929190818152602001828054610d2490612de8565b8015610d715780601f10610d4657610100808354040283529160200191610d71565b820191906000526020600020905b815481529060010190602001808311610d5457829003601f168201915b5050505050905090565b610d8d610d86611369565b8383611877565b5050565b6060600a60003373ffffffffffffffffffffffffffffffffffffffff1673ffffffffffffffffffffffffffffffffffffffff168152602001908152602001600020600201805480602002602001604051908101604052809291908181526020018280548015610e1f57602002820191906000526020600020905b815481526020019060010190808311610e0b575b5050505050905090565b610e3a610e34611369565b8361142a565b610e79576040517f08c379a0000000000000000000000000000000000000000000000000000000008152600401610e7090612adf565b60405180910390fd5b610e85848484846119e4565b50505050565b3373ffffffffffffffffffffffffffffffffffffffff16610eab82610887565b73ffffffffffffffffffffffffffffffffffffffff1614610f01576040517f08c379a0000000000000000000000000000000000000000000000000000000008152600401610ef890612a9f565b60405180910390fd5b600a60008373ffffffffffffffffffffffffffffffffffffffff1673ffffffffffffffffffffffffffffffffffffffff1681526020019081526020016000206002018190806001815401808255809150506001900390600052602060002001600090919091909150555050565b60098181548110610f7e57600080fd5b906000526020600020016000915090505481565b6060600073ffffffffffffffffffffffffffffffffffffffff16610fb583610887565b73ffffffffffffffffffffffffffffffffffffffff16141561100c576040517f08c379a000000000000000000000000000000000000000000000000000000000815260040161100390612a3f565b60405180910390fd5b600060086000848152602001908152602001600020805461102c90612de8565b80601f016020809104026020016040519081016040528092919081815260200182805461105890612de8565b80156110a55780601f1061107a576101008083540402835291602001916110a5565b820191906000526020600020905b81548152906001019060200180831161108857829003601f168201915b505050505090506000816040516020016110bf91906127e0565b604051602081830303815290604052905060006110db82611a40565b9050806040516020016110ee91906127f7565b6040516020818303038152906040529350505050919050565b6000600560008473ffffffffffffffffffffffffffffffffffffffff1673ffffffffffffffffffffffffffffffffffffffff16815260200190815260200160002060008373ffffffffffffffffffffffffffffffffffffffff1673ffffffffffffffffffffffffffffffffffffffff16815260200190815260200160002060009054906101000a900460ff16905092915050565b6111a3611369565b73ffffffffffffffffffffffffffffffffffffffff166111c1610b69565b73ffffffffffffffffffffffffffffffffffffffff1614611217576040517f08c379a000000000000000000000000000000000000000000000000000000000815260040161120e90612a7f565b60405180910390fd5b600073ffffffffffffffffffffffffffffffffffffffff168173ffffffffffffffffffffffffffffffffffffffff161415611287576040517f08c379a000000000000000000000000000000000000000000000000000000000815260040161127e906128ff565b60405180910390fd5b6112908161176f565b50565b60007f01ffc9a7000000000000000000000000000000000000000000000000000000007bffffffffffffffffffffffffffffffffffffffffffffffffffffffff1916827bffffffffffffffffffffffffffffffffffffffffffffffffffffffff1916149050919050565b60008073ffffffffffffffffffffffffffffffffffffffff166002600084815260200190815260200160002060009054906101000a900473ffffffffffffffffffffffffffffffffffffffff1673ffffffffffffffffffffffffffffffffffffffff1614159050919050565b600033905090565b816004600083815260200190815260200160002060006101000a81548173ffffffffffffffffffffffffffffffffffffffff021916908373ffffffffffffffffffffffffffffffffffffffff160217905550808273ffffffffffffffffffffffffffffffffffffffff166113e483610887565b73ffffffffffffffffffffffffffffffffffffffff167f8c5be1e5ebec7d5bd14f71427d1e84f3dd0314c0f7b2291e5b200ac8c7c3b92560405160405180910390a45050565b6000611435826112fd565b611474576040517f08c379a000000000000000000000000000000000000000000000000000000000815260040161146b9061299f565b60405180910390fd5b600061147f83610887565b90508073ffffffffffffffffffffffffffffffffffffffff168473ffffffffffffffffffffffffffffffffffffffff1614806114ee57508373ffffffffffffffffffffffffffffffffffffffff166114d6846105d2565b73ffffffffffffffffffffffffffffffffffffffff16145b806114ff57506114fe8185611107565b5b91505092915050565b8273ffffffffffffffffffffffffffffffffffffffff1661152882610887565b73ffffffffffffffffffffffffffffffffffffffff161461157e576040517f08c379a00000000000000000000000000000000000000000000000000000000081526004016115759061291f565b60405180910390fd5b600073ffffffffffffffffffffffffffffffffffffffff168273ffffffffffffffffffffffffffffffffffffffff1614156115ee576040517f08c379a00000000000000000000000000000000000000000000000000000000081526004016115e59061295f565b60405180910390fd5b6115f9838383611bca565b611604600082611371565b6001600360008573ffffffffffffffffffffffffffffffffffffffff1673ffffffffffffffffffffffffffffffffffffffff16815260200190815260200160002060008282546116549190612cfe565b925050819055506001600360008473ffffffffffffffffffffffffffffffffffffffff1673ffffffffffffffffffffffffffffffffffffffff16815260200190815260200160002060008282546116ab9190612c1d565b92505081905550816002600083815260200190815260200160002060006101000a81548173ffffffffffffffffffffffffffffffffffffffff021916908373ffffffffffffffffffffffffffffffffffffffff160217905550808273ffffffffffffffffffffffffffffffffffffffff168473ffffffffffffffffffffffffffffffffffffffff167fddf252ad1be2c89b69c2b068fc378daa952ba7f163c4a11628f55a4df523b3ef60405160405180910390a461176a838383611bcf565b505050565b6000600660009054906101000a900473ffffffffffffffffffffffffffffffffffffffff16905081600660006101000a81548173ffffffffffffffffffffffffffffffffffffffff021916908373ffffffffffffffffffffffffffffffffffffffff1602179055508173ffffffffffffffffffffffffffffffffffffffff168173ffffffffffffffffffffffffffffffffffffffff167f8be0079c531659141344cd1fd0a4f28419497f9722a3daafe3b4186f6b6457e060405160405180910390a35050565b6001816000016000828254019250508190555050565b600081600001549050919050565b611873828260405180602001604052806000815250611bd4565b5050565b8173ffffffffffffffffffffffffffffffffffffffff168373ffffffffffffffffffffffffffffffffffffffff1614156118e6576040517f08c379a00000000000000000000000000000000000000000000000000000000081526004016118dd9061297f565b60405180910390fd5b80600560008573ffffffffffffffffffffffffffffffffffffffff1673ffffffffffffffffffffffffffffffffffffffff16815260200190815260200160002060008473ffffffffffffffffffffffffffffffffffffffff1673ffffffffffffffffffffffffffffffffffffffff16815260200190815260200160002060006101000a81548160ff0219169083151502179055508173ffffffffffffffffffffffffffffffffffffffff168373ffffffffffffffffffffffffffffffffffffffff167f17307eab39ab6107e8899845ad3d59bd9653f200f220920489ca2b5937696c31836040516119d791906128a2565b60405180910390a3505050565b6119ef848484611508565b6119fb84848484611c2f565b611a3a576040517f08c379a0000000000000000000000000000000000000000000000000000000008152600401611a31906128df565b60405180910390fd5b50505050565b6060600082511415611a6357604051806020016040528060008152509050611bc5565b60006040518060600160405280604081526020016133f96040913990506000600360028551611a929190612c1d565b611a9c9190612c73565b6004611aa89190612ca4565b67ffffffffffffffff811115611ae7577f4e487b7100000000000000000000000000000000000000000000000000000000600052604160045260246000fd5b6040519080825280601f01601f191660200182016040528015611b195781602001600182028036833780820191505090505b509050600182016020820185865187015b80821015611b85576003820191508151603f8160121c168501518453600184019350603f81600c1c168501518453600184019350603f8160061c168501518453600184019350603f8116850151845360018401935050611b2a565b5050600386510660018114611ba15760028114611bb457611bbc565b603d6001830353603d6002830353611bbc565b603d60018303535b50505080925050505b919050565b505050565b505050565b611bde8383611dc6565b611beb6000848484611c2f565b611c2a576040517f08c379a0000000000000000000000000000000000000000000000000000000008152600401611c21906128df565b60405180910390fd5b505050565b6000611c508473ffffffffffffffffffffffffffffffffffffffff16611fa0565b15611db9578373ffffffffffffffffffffffffffffffffffffffff1663150b7a02611c79611369565b8786866040518563ffffffff1660e01b8152600401611c9b9493929190612834565b602060405180830381600087803b158015611cb557600080fd5b505af1925050508015611ce657506040513d601f19601f82011682018060405250810190611ce3919061236f565b60015b611d69573d8060008114611d16576040519150601f19603f3d011682016040523d82523d6000602084013e611d1b565b606091505b50600081511415611d61576040517f08c379a0000000000000000000000000000000000000000000000000000000008152600401611d58906128df565b60405180910390fd5b805181602001fd5b63150b7a0260e01b7bffffffffffffffffffffffffffffffffffffffffffffffffffffffff1916817bffffffffffffffffffffffffffffffffffffffffffffffffffffffff191614915050611dbe565b600190505b949350505050565b600073ffffffffffffffffffffffffffffffffffffffff168273ffffffffffffffffffffffffffffffffffffffff161415611e36576040517f08c379a0000000000000000000000000000000000000000000000000000000008152600401611e2d90612a1f565b60405180910390fd5b611e3f816112fd565b15611e7f576040517f08c379a0000000000000000000000000000000000000000000000000000000008152600401611e769061293f565b60405180910390fd5b611e8b60008383611bca565b6001600360008473ffffffffffffffffffffffffffffffffffffffff1673ffffffffffffffffffffffffffffffffffffffff1681526020019081526020016000206000828254611edb9190612c1d565b92505081905550816002600083815260200190815260200160002060006101000a81548173ffffffffffffffffffffffffffffffffffffffff021916908373ffffffffffffffffffffffffffffffffffffffff160217905550808273ffffffffffffffffffffffffffffffffffffffff16600073ffffffffffffffffffffffffffffffffffffffff167fddf252ad1be2c89b69c2b068fc378daa952ba7f163c4a11628f55a4df523b3ef60405160405180910390a4611f9c60008383611bcf565b5050565b6000808273ffffffffffffffffffffffffffffffffffffffff163b119050919050565b828054611fcf90612de8565b90600052602060002090601f016020900481019282611ff15760008555612038565b82601f1061200a57805160ff1916838001178555612038565b82800160010185558215612038579182015b8281111561203757825182559160200191906001019061201c565b5b5090506120459190612049565b5090565b5b8082111561206257600081600090555060010161204a565b5090565b600061207961207484612b3f565b612b1a565b90508281526020810184848401111561209157600080fd5b61209c848285612da6565b509392505050565b60006120b76120b284612b70565b612b1a565b9050828152602081018484840111156120cf57600080fd5b6120da848285612da6565b509392505050565b6000813590506120f18161339c565b92915050565b600081359050612106816133b3565b92915050565b60008135905061211b816133ca565b92915050565b600081519050612130816133ca565b92915050565b600082601f83011261214757600080fd5b8135612157848260208601612066565b91505092915050565b600082601f83011261217157600080fd5b81356121818482602086016120a4565b91505092915050565b600081359050612199816133e1565b92915050565b6000602082840312156121b157600080fd5b60006121bf848285016120e2565b91505092915050565b600080604083850312156121db57600080fd5b60006121e9858286016120e2565b92505060206121fa858286016120e2565b9150509250929050565b60008060006060848603121561221957600080fd5b6000612227868287016120e2565b9350506020612238868287016120e2565b92505060406122498682870161218a565b9150509250925092565b6000806000806080858703121561226957600080fd5b6000612277878288016120e2565b9450506020612288878288016120e2565b93505060406122998782880161218a565b925050606085013567ffffffffffffffff8111156122b657600080fd5b6122c287828801612136565b91505092959194509250565b600080604083850312156122e157600080fd5b60006122ef858286016120e2565b9250506020612300858286016120f7565b9150509250929050565b6000806040838503121561231d57600080fd5b600061232b858286016120e2565b925050602061233c8582860161218a565b9150509250929050565b60006020828403121561235857600080fd5b60006123668482850161210c565b91505092915050565b60006020828403121561238157600080fd5b600061238f84828501612121565b91505092915050565b600080604083850312156123ab57600080fd5b600083013567ffffffffffffffff8111156123c557600080fd5b6123d185828601612160565b92505060206123e2858286016120f7565b9150509250929050565b6000602082840312156123fe57600080fd5b600061240c8482850161218a565b91505092915050565b600061242183836127c2565b60208301905092915050565b61243681612d32565b82525050565b600061244782612bb1565b6124518185612bdf565b935061245c83612ba1565b8060005b8381101561248d5781516124748882612415565b975061247f83612bd2565b925050600181019050612460565b5085935050505092915050565b6124a381612d44565b82525050565b60006124b482612bbc565b6124be8185612bf0565b93506124ce818560208601612db5565b6124d781612f07565b840191505092915050565b60006124ed82612bc7565b6124f78185612c01565b9350612507818560208601612db5565b61251081612f07565b840191505092915050565b600061252682612bc7565b6125308185612c12565b9350612540818560208601612db5565b80840191505092915050565b6000612559603283612c01565b915061256482612f18565b604082019050919050565b600061257c602683612c01565b915061258782612f67565b604082019050919050565b600061259f602583612c01565b91506125aa82612fb6565b604082019050919050565b60006125c2601c83612c01565b91506125cd82613005565b602082019050919050565b60006125e5602483612c01565b91506125f08261302e565b604082019050919050565b6000612608601983612c01565b91506126138261307d565b602082019050919050565b600061262b602c83612c01565b9150612636826130a6565b604082019050919050565b600061264e603883612c01565b9150612659826130f5565b604082019050919050565b6000612671602a83612c01565b915061267c82613144565b604082019050919050565b6000612694602983612c01565b915061269f82613193565b604082019050919050565b60006126b7602083612c01565b91506126c2826131e2565b602082019050919050565b60006126da601583612c01565b91506126e58261320b565b602082019050919050565b60006126fd602c83612c01565b915061270882613234565b604082019050919050565b6000612720602083612c01565b915061272b82613283565b602082019050919050565b6000612743601a83612c01565b915061274e826132ac565b602082019050919050565b6000612766602183612c01565b9150612771826132d5565b604082019050919050565b6000612789601d83612c12565b915061279482613324565b601d82019050919050565b60006127ac603183612c01565b91506127b78261334d565b604082019050919050565b6127cb81612d9c565b82525050565b6127da81612d9c565b82525050565b60006127ec828461251b565b915081905092915050565b60006128028261277c565b915061280e828461251b565b915081905092915050565b600060208201905061282e600083018461242d565b92915050565b6000608082019050612849600083018761242d565b612856602083018661242d565b61286360408301856127d1565b818103606083015261287581846124a9565b905095945050505050565b6000602082019050818103600083015261289a818461243c565b905092915050565b60006020820190506128b7600083018461249a565b92915050565b600060208201905081810360008301526128d781846124e2565b905092915050565b600060208201905081810360008301526128f88161254c565b9050919050565b600060208201905081810360008301526129188161256f565b9050919050565b6000602082019050818103600083015261293881612592565b9050919050565b60006020820190508181036000830152612958816125b5565b9050919050565b60006020820190508181036000830152612978816125d8565b9050919050565b60006020820190508181036000830152612998816125fb565b9050919050565b600060208201905081810360008301526129b88161261e565b9050919050565b600060208201905081810360008301526129d881612641565b9050919050565b600060208201905081810360008301526129f881612664565b9050919050565b60006020820190508181036000830152612a1881612687565b9050919050565b60006020820190508181036000830152612a38816126aa565b9050919050565b60006020820190508181036000830152612a58816126cd565b9050919050565b60006020820190508181036000830152612a78816126f0565b9050919050565b60006020820190508181036000830152612a9881612713565b9050919050565b60006020820190508181036000830152612ab881612736565b9050919050565b60006020820190508181036000830152612ad881612759565b9050919050565b60006020820190508181036000830152612af88161279f565b9050919050565b6000602082019050612b1460008301846127d1565b92915050565b6000612b24612b35565b9050612b308282612e1a565b919050565b6000604051905090565b600067ffffffffffffffff821115612b5a57612b59612ed8565b5b612b6382612f07565b9050602081019050919050565b600067ffffffffffffffff821115612b8b57612b8a612ed8565b5b612b9482612f07565b9050602081019050919050565b6000819050602082019050919050565b600081519050919050565b600081519050919050565b600081519050919050565b6000602082019050919050565b600082825260208201905092915050565b600082825260208201905092915050565b600082825260208201905092915050565b600081905092915050565b6000612c2882612d9c565b9150612c3383612d9c565b9250827fffffffffffffffffffffffffffffffffffffffffffffffffffffffffffffffff03821115612c6857612c67612e4b565b5b828201905092915050565b6000612c7e82612d9c565b9150612c8983612d9c565b925082612c9957612c98612e7a565b5b828204905092915050565b6000612caf82612d9c565b9150612cba83612d9c565b9250817fffffffffffffffffffffffffffffffffffffffffffffffffffffffffffffffff0483118215151615612cf357612cf2612e4b565b5b828202905092915050565b6000612d0982612d9c565b9150612d1483612d9c565b925082821015612d2757612d26612e4b565b5b828203905092915050565b6000612d3d82612d7c565b9050919050565b60008115159050919050565b60007fffffffff0000000000000000000000000000000000000000000000000000000082169050919050565b600073ffffffffffffffffffffffffffffffffffffffff82169050919050565b6000819050919050565b82818337600083830152505050565b60005b83811015612dd3578082015181840152602081019050612db8565b83811115612de2576000848401525b50505050565b60006002820490506001821680612e0057607f821691505b60208210811415612e1457612e13612ea9565b5b50919050565b612e2382612f07565b810181811067ffffffffffffffff82111715612e4257612e41612ed8565b5b80604052505050565b7f4e487b7100000000000000000000000000000000000000000000000000000000600052601160045260246000fd5b7f4e487b7100000000000000000000000000000000000000000000000000000000600052601260045260246000fd5b7f4e487b7100000000000000000000000000000000000000000000000000000000600052602260045260246000fd5b7f4e487b7100000000000000000000000000000000000000000000000000000000600052604160045260246000fd5b6000601f19601f8301169050919050565b7f4552433732313a207472616e7366657220746f206e6f6e20455243373231526560008201527f63656976657220696d706c656d656e7465720000000000000000000000000000602082015250565b7f4f776e61626c653a206e6577206f776e657220697320746865207a65726f206160008201527f6464726573730000000000000000000000000000000000000000000000000000602082015250565b7f4552433732313a207472616e736665722066726f6d20696e636f72726563742060008201527f6f776e6572000000000000000000000000000000000000000000000000000000602082015250565b7f4552433732313a20746f6b656e20616c7265616479206d696e74656400000000600082015250565b7f4552433732313a207472616e7366657220746f20746865207a65726f2061646460008201527f7265737300000000000000000000000000000000000000000000000000000000602082015250565b7f4552433732313a20617070726f766520746f2063616c6c657200000000000000600082015250565b7f4552433732313a206f70657261746f7220717565727920666f72206e6f6e657860008201527f697374656e7420746f6b656e0000000000000000000000000000000000000000602082015250565b7f4552433732313a20617070726f76652063616c6c6572206973206e6f74206f7760008201527f6e6572206e6f7220617070726f76656420666f7220616c6c0000000000000000602082015250565b7f4552433732313a2062616c616e636520717565727920666f7220746865207a6560008201527f726f206164647265737300000000000000000000000000000000000000000000602082015250565b7f4552433732313a206f776e657220717565727920666f72206e6f6e657869737460008201527f656e7420746f6b656e0000000000000000000000000000000000000000000000602082015250565b7f4552433732313a206d696e7420746f20746865207a65726f2061646472657373600082015250565b7f546f6b656e20646f6573206e6f742065786973742e0000000000000000000000600082015250565b7f4552433732313a20617070726f76656420717565727920666f72206e6f6e657860008201527f697374656e7420746f6b656e0000000000000000000000000000000000000000602082015250565b7f4f776e61626c653a2063616c6c6572206973206e6f7420746865206f776e6572600082015250565b7f4f6e6c792066696c65206f776e65722063616e2073686172652e000000000000600082015250565b7f4552433732313a20617070726f76616c20746f2063757272656e74206f776e6560008201527f7200000000000000000000000000000000000000000000000000000000000000602082015250565b7f646174613a6170706c69636174696f6e2f6a736f6e3b6261736536342c000000600082015250565b7f4552433732313a207472616e736665722063616c6c6572206973206e6f74206f60008201527f776e6572206e6f7220617070726f766564000000000000000000000000000000602082015250565b6133a581612d32565b81146133b057600080fd5b50565b6133bc81612d44565b81146133c757600080fd5b50565b6133d381612d50565b81146133de57600080fd5b50565b6133ea81612d9c565b81146133f557600080fd5b5056fe4142434445464748494a4b4c4d4e4f505152535455565758595a6162636465666768696a6b6c6d6e6f707172737475767778797a303132333435363738392b2fa26469706673582212200635620f02a15d279bd29873c17cb34b4bb6255b9211a6aaaa54fb27718760a864736f6c63430008040033",
  "linkReferences": {},
  "deployedLinkReferences": {}
}